:020000040800F2
:10000000480500200101000853130008A51200084C
:1000100051130008910400081516000800000000A4
:10002000000000000000000000000000571300085E
:10003000930400080000000055130008591300083D
:100040001B0100081B0100081B0100081B01000820
:100050001B0100081B0100081B0100081B01000810
:100060001B0100081B0100081B0100081B01000800
:100070001B0100081B0100081B0100081B010008F0
:100080001B0100081B0100081B0100081B010008E0
:100090001B0100081B0100081B0100081B010008D0
:1000A0001B0100081B0100081B0100081B010008C0
:1000B0001B0100081B0100081B0100081B010008B0
:1000C0001B0100081B0100081B0100081B010008A0
:1000D0001B010008091600081B0100081B0100088D
:1000E0001B0100081B0100081B010008DFF80CD0F1
:1000F00000F040F800480047ED17000848050020D0
:100100000648804706480047FEE7FEE7FEE7FEE7B1
:10011000FEE7FEE7FEE7FEE7FEE7FEE7BB130008AB
:10012000ED000008D2B201E000F8012B491EFBD21D
:1001300070470022F6E710B513460A4604461946F2
:10014000FFF7F0FF204610BD30B50B4601460020FA
:100150002022012409E021FA02F59D4205D303FA89
:1001600002F5491B04FA02F52844151EA2F101020A
:10017000F1DC30BD064C074D06E0E06840F00103BD
:1001800094E8070098471034AC42F6D3FFF7B2FF6B
:10019000F0180008101900082DE9F041214D88469B
:1001A000064600274FF480742146284600F026FBBF
:1001B0000028F9D146EA0801012000F035F84FF493
:1001C000007600223146284600F01DFBFC2000F09E
:1001D00037F9002000F034F92146284600F00EFBE4
:1001E0000028F9D1012000F02BF90A2000F08AF94B
:1001F00000F0FEF847EA004400F0FAF844EA00276D
:1002000000F0F6F840EA070400223146284600F0E4
:10021000FAFAB4F5000F01D3A4F180742046BDE8CA
:10022000F0810000000C01402DE9F041114D88469D
:1002300004464FF4007600223146284600F0E3FAE7
:10024000AF153946284600F0D9FA0028F9D104F054
:100250000F0040F0500000F0F3F8002000F0F0F83C
:10026000404600F0EDF831462846BDE8F041012255
:1002700000F0C9BA000C01402DE9F04F85B000260E
:10028000824658488B4600960196029603968169ED
:1002900041F008018161816901F0080104918169DF
:1002A00041F0040181618069DFF83C9100F00400B5
:1002B000049001224021484600F0A5FA4B4C01224F
:1002C0002021204600F09FFA01224021204600F024
:1002D0009AFA01224021204600F095FA01254FF0BC
:1002E00040080327CDE90085CDE902576946484615
:1002F00000F094F92020CDE90005CDE902576946C8
:10030000204600F08BF9CDE90085CDE9025769461A
:10031000204600F083F94FF48078CDE900864FF055
:10032000020969462046CDF8089000F077F9802050
:100330008DE841026946204600F070F96615CDE966
:100340000065CDE902576946204600F067F9454649
:100350002946204600F052FA0028F9D10022314601
:10036000204600F050FAF02000F06AF829462046B6
:1003700000F044FA0028F9D101223146204600F06D
:1003800042FA06210020FFF74FFF04210020FFF76B
:100390004BFF51460220FFF747FF59460320FFF766
:1003A00043FF00210420FFF73FFF2946204600F0CD
:1003B00025FA0028F9D100223146204600F023FA20
:1003C000F02000F03DF82946204600F017FA0028FA
:1003D000F9D101223146204600F015FA05B0BDE8FA
:1003E000F08F00000010024000080140000C0140A6
:1003F00070B500240A2000F085F8104E0025012277
:100400002021304600F0FFF90A2000F07BF860065A
:10041000040E00222021304600F0F5F980213046FC
:1004200000F0ECF908B1641CE4B20A2000F06AF8AC
:100430006D1C082DE3DB204670BD0000000C014060
:1004400070B505460A2000F05DF8104E002428061D
:1004500001D5012200E000224021304600F0D3F90E
:1004600001222021304600F0CEF90A2000F04AF89F
:100470006806050E00222021304600F0C4F90A204B
:1004800000F040F8641C082CE1DB70BD000C01405A
:10049000FEE770474FF0E020016921F0040101619F
:1004A000084809490068B0FBF1F0C1B2074801EB08
:1004B00041020170C2EBC1114FF6FF7202EAC101A5
:1004C000418070473000002000127A003400002084
:1004D0000B49498848434FF0E021486100228A6176
:1004E000086940F0010008610869C30701D0C00332
:1004F000FAD5086920F0010008618A6170470000A0
:10050000340000200B49097848434FF0E02148614E
:1005100000228A61086940F0010008610869C30788
:1005200001D0C003FAD5086920F0010008618A6192
:10053000704700003400002072B6FEE710B590F856
:1005400021100022022905D00421816380F8202097
:10055000012010BD01680B6823F00E030B600168D9
:100560000B6823F001030B6090F84030C46B01214D
:1005700001FA03F3636080F8211080F82020104610
:1005800010BD000010B590F821100024022903D0FE
:100590000421816301243DE001680A6822F00E0213
:1005A0000A6001680A6822F001020A601A4A0168BA
:1005B000914201D1012121E0174A1432914201D127
:1005C00010211BE0144A2832914201D1891515E00F
:1005D000114A3C32914201D189140FE00E4A503247
:1005E000914202D14FF4803108E00B4A64329142CB
:1005F00002D14FF4801101E04FF08071064A083AB1
:100600005160012180F82110002180F82010416BF9
:1006100001B18847204610BD080002402DE9F84F7F
:10062000DFF8B891002409F1040A0AF1040B23460B
:100630000F270BF1040EC9E00125A5402A40AA426C
:100640007DD1674ED1F804C0ACEB0608B44532D07A
:1006500014DCBCF1030F3AD009DCBCF1000F2AD046
:10066000BCF1010F1CD0BCF1020F31D11DE0BCF177
:10067000110F17D0BCF1120F2AD119E0B8F5881F5D
:1006800019D006DCB8F5803F15D0B8F5801F1FD112
:1006900011E0B8F5001F0ED0B8F5041F18D10AE01C
:1006A000CB6815E0CB681B1D12E0CB6808330FE068
:1006B000CB680C330CE08B682BB1012B4FF0080397
:1006C00003D0456104E0042302E0056100E000235B
:1006D000FF2A01D8064601E000F104064FEA84052E
:1006E00001D9A5F12005D6F8008007FA05FC28EA13
:1006F0000C0803FA05F548EA0508C6F800804D68BD
:10070000ED0062D5374DAE6946F00106AE61AD69C8
:1007100024F0030605F001050095334D06EB050CAA
:10072000DCF80850A607360F07FA06F825EA080590
:10073000DFF8B880404503D14FF0000817E044E0EF
:10074000DFF8AC80404502D14FF001080FE0DFF840
:10075000A480404502D14FF0020808E0DFF89880FD
:10076000404502D14FF0030801E04FF0040808FAB9
:1007700006F848EA0508CCF808804D68D9F800600A
:10078000ED034D4601D5164300E096432E604D68BB
:10079000DAF80060AD03554601D5164300E09643F4
:1007A0002E604D68DBF80060ED025D4601D5164312
:1007B00000E096432E604D68DEF80060AD0275469D
:1007C00001D5164300E096432E60641C0D682A464E
:1007D000E5407FF431AFBDE8F88F00000004014030
:1007E000000011100010024000000140000801400C
:1007F000000C0140001001400014014080680840D6
:1008000000D0012070470AB1016170470904FBE77D
:100810000148806870470000240000200248816879
:10082000027811448160704724000020074810B509
:10083000016841F010010160032000F075F80F20FD
:1008400000F006F800F024F8002010BD002002405F
:1008500070B50D4D04464FF47A712878B1FBF0F075
:100860000A490968B1FBF0F000F0ECFA48B9102C25
:1008700007D200222146501E00F036F800206C609E
:1008800070BD012070BD0000240000203000002059
:100890000C4808B5816941F001018161816901F06D
:1008A00001010091C16941F08051C161C06900F04E
:1008B000805000900448416821F0E06141F00071EF
:1008C000416008BD0010024000000140002809DB23
:1008D00000F01F02012191404009800000F1E0205A
:1008E000C0F8001170470000F0B40E4B1B680C46B6
:1008F000C3F30223C3F10705042D00D90425191DF4
:10090000072901D2002300E0DB1E012606FA05F1CB
:10091000491E214099409E40761E16403143F0BC4E
:1009200000F08ABE0CED00E0064900F007020868FE
:100930004FF6FF03184040EA0220034A10430860C4
:10094000704700000CED00E00000FA052DE9F047CB
:100950000F46050061D0434E306800F00700B842F2
:1009600009D2306820F0070038433060306800F06A
:100970000700B84251D128683B4C810712D5400787
:1009800003D5606840F4E06060602878000703D514
:10099000606840F4605060606068A96820F0F00012
:1009A000084360602878C00728D06868012810D004
:1009B0002168022810D0890700292EDA616821F009
:1009C000030101436160FFF723FF804641F288394C
:1009D0000DE021688903EFE78901EDE7FFF718FFD4
:1009E000A0EB0801494502D90320BDE8F087606803
:1009F000696800F00C00B0EB810FEFD1306800F0B7
:100A00000700B8420BD9306820F007003843306047
:100A1000306800F00700B84201D00120E5E72878EF
:100A2000400705D56068E96820F4E060084360602D
:100A30002878000706D56068296920F4605040EAEC
:100A4000C100606000F038F86168084AC1F3031122
:100A5000515CC8400649086006480068FFF7F8FE88
:100A60000020C2E70020024000100240D818000811
:100A7000300000202800002004480549006849682B
:100A8000044AC1F30221515CC84070473000002085
:100A900000100240E8180008044805490068496849
:100AA000044AC1F3C221515CC840704730000020A5
:100AB00000100240E818000812A185B00FC98DE8A7
:100AC0000F0014A0144A006804905168134801F004
:100AD0000C03042B10D0082B0ED1C1F38343C903A0
:100AE0001DF803000AD5516804AAC1F34041515CC6
:100AF0000A4A5043B0FBF1F005B07047084948433B
:100B0000FAE7000002030405060708090A0B0C0DAA
:100B10000E0F1010010200000010024000127A00B7
:100B200000093D002DE9F84F040070D02078C04D39
:100B3000C00749D06868C0F38100012807D0686801
:100B4000C0F38100022809D16868C00306D528686F
:100B5000800339D560680028E7D035E06068B0F5DB
:100B6000803F0BD010B1B0F5A02F11D0286820F431
:100B700080302860286820F4802002E0286840F453
:100B800080302860606890B1FFF742FE06460AE0B8
:100B9000286840F480202860F0E700BFFFF738FEA7
:100BA000801B642873D828688003F7D50CE0FFF712
:100BB0002FFE064605E000BFFFF72AFE801B6428D3
:100BC000F0D828688003F7D420789A4E80074FF039
:100BD00001094FF0000839D5686810F00C0F07D0F4
:100BE0006868C0F38100022809D16868C00306D490
:100BF0002868800714D52069012808D110E02069F1
:100C0000B0B1C6F80090FFF703FE074605E00AE121
:100C1000FFF7FEFDC01B0228C4D828688007F7D55F
:100C20002868616920F0F80040EAC10028600DE002
:100C3000C6F80080FFF7ECFD074604E0FFF7E8FD8B
:100C4000C01B022823D828688007F7D42078000723
:100C50002CD57948A169D9B1C0F80090FFF7D8FD2B
:100C6000074604E0FFF7D4FDC01B02280FD8686ACE
:100C70008007F7D571484FF4FA510068B0FBF1F0E6
:100C8000009000BF0098411E0091FAD20EE080E073
:100C9000C0F80080FFF7BCFD074604E0FFF7B8FD91
:100CA000C01B022875D8686A8007F7D420784007EF
:100CB00060D5E8690027C00008D4E86940F080509A
:100CC000E861E869012700F0805000905C48016805
:100CD000C90513D40168834641F480710160FFF7B0
:100CE00097FD824606E000BFFFF792FDA0EB0A00E9
:100CF00064284ED8DBF80000C005F5D5E06801286F
:100D00000AD008B1052813D0286A20F00100286213
:100D1000286A20F0040002E0286A40F001002862FE
:100D2000E06841F2883B98B1FFF772FD82460BE024
:100D3000286A40F004002862EEE700BFFFF768FD74
:100D4000A0EB0A0159455AD8286A8007F6D50CE06D
:100D5000FFF75EFD824605E0FFF75AFDA0EB0A01B2
:100D600059454CD8286A8007F6D41FB1E86920F0AD
:100D70008050E861E06988B36968C1F381010229A4
:100D800044D00228C6F8608004D0FFF741FD044635
:100D900038E034E0FFF73CFD074604E0FFF738FD9C
:100DA000C01B02282BD828688001F7D4206AB0F530
:100DB000803F05D16868A16820F40030084368606E
:100DC000D4E908010843696821F474110843686094
:100DD000C6F86090FFF71CFD044606E025E000BF62
:100DE000FFF716FD001B022809D828688001F7D5F7
:100DF0001BE000BFFFF70CFD001B022802D90320F7
:100E0000BDE8F88F28688001F4D40EE00128F7D0FF
:100E10006868226A00F48031914204D1616A00F46A
:100E20007010884201D00120EAE70020E8E70000C6
:100E30000010024000004242800442423000002084
:100E40000070004010B5401EB0F1807F01D301203A
:100E500010BD4FF0E02460610F21601700F0ECFB43
:100E60000020A06107202061002010BD704770475E
:100E7000F8B5026804461068D168536910F00F0F86
:100E80004FF0000553D003F0010601F4907737438B
:100E90005FD0C20705D0CA0503D5226C42F001021B
:100EA0002264420705D5DA0703D0226C42F0020221
:100EB0002264820705D5DA0703D0226C42F00402CF
:100EC0002264020707D501F02002324303D0226CCE
:100ED00042F008022264226C002A34D0800604D535
:100EE000880602D5204600F089FA20684069216C06
:100EF000C0F38010090700D430B3204600F066FA32
:100F00002068416949061BD5416921F040014161D2
:100F1000A06BA8B158494163A06BFFF733FB0028D1
:100F200011D0A06B416B01B0BDE8F04008478306CB
:100F30000FD58B060DD52046BDE8F84000F05EBA0F
:100F40002046FFF794FFF8BD2046FFF790FF256489
:100F5000F8BD266B2023012E52D1C60650D5CE06F1
:100F60004ED5106850680090506940062AD5A16B94
:100F7000086840680004000CEAD0A68D8642E7D9D4
:100F8000E0858869202818D0D06820F48070D0606F
:100F90002068416921F0010141612068416921F027
:100FA0004001416184F83E3025632068C16821F02A
:100FB0001001C160A06BFFF7C1FAA08DE18D401A4E
:100FC00081B219E0A08DE18D401A81B2E08D002838
:100FD000BED00029BCD0D06820F49070D0602068CA
:100FE000426922F00102426184F83E3025632068A4
:100FF000C26822F01002C2602046FFF737FFF8BD3A
:1010000005062BD50D0629D594F83D002128F6D1EB
:10101000A068B0F5805F01D12069B0B1206A411CA1
:101020002162216800784860E08C401E0004000CBA
:10103000E084E4D12068C16821F08001C1602068AB
:10104000C16841F04001C160F8BD206A0088C0F36A
:1010500008005060206A801C2062E5E74006F3D556
:101060004806F1D5D168204621F04001D16084F8CE
:101070003D3000F016F9F8BDBD13000870B504004E
:1010800004D094F83D00002510B106E0012070BDA9
:1010900084F83C50204600F023F8242084F83D00DA
:1010A0002068C16821F40051C160204600F002FAB6
:1010B0002068016921F4904101612068416921F0B3
:1010C0002A0141612068C16841F40051C160256472
:1010D000202084F83D0084F83E00002070BD000010
:1010E00030B585B000240094019402940394006804
:1010F000184988422CD11848816941F480418161A6
:10110000816901F480410491816941F004018161A8
:101110008069124D00F0040004904FF400700090BC
:10112000022001900320039069462846FFF776FAD3
:101130002815CDE90004694628460294FFF76EFAA7
:10114000002211462520FFF7CFFB2520FFF7BEFB2D
:1011500005B030BD003801400010024000080140D9
:1011600090F83E30202B0ED159B152B190F83C305E
:10117000012B08D0012380F83C300023036300F0EA
:10118000F5B901207047022070470000154930B4BE
:10119000884224D114480278BAB141880B0414D48F
:1011A0004C044FF0000304D50A2A0DD141F400414C
:1011B00013E00D2A0FD0C1F30D040C4D491C89B268
:1011C0002A554180C72900D9438030BC01220649F5
:1011D0000448FFF7C5BF41F480414180F5E730BCCA
:1011E0007047000004010020000000203C000020A7
:1011F0002DE9F843044690F83D001F4616460D467B
:1012000020284CD1C5B1BEB194F83C00012846D08D
:10121000012084F83C004FF00008C4F840802120F1
:1012200084F83D00FFF7F4FAA6848146E684A068BE
:10123000B0F5805F03D004E00120BDE8F8832069A9
:1012400028B12E465FF0000584F83C800EE00026B1
:10125000FAE78021204600F0A4F9A0B9AEB116F853
:10126000010B21684860E08C401EE084E08C4B4616
:101270004FF0000200970028EBD14FF040012046CC
:1012800000F08FF930B10320D7E735F8020BC0F337
:101290000800E6E7202084F83D000020CDE702208A
:1012A000CBE77047FEE7000070B586B00024184811
:1012B0000094019402940394816941F010018161CA
:1012C000816901F010010491816941F0200181617F
:1012D000816901F020010491816941F0040181617B
:1012E00080690C4E00F004004FF400550490002279
:1012F00029463046FFF787FA01200095CDE9010421
:101300000220039069463046FFF788F906B070BDA9
:1013100000100240001001400C4810B50A4901605D
:101320004FF4E1314160002181600C22C160C0E9CD
:1013300004128161C161FFF7A1FE002803D0BDE85E
:101340001040FFF7F9B810BD00380140040100203B
:10135000FEE7FEE770477047FFF760BA30B58FB021
:1013600028216846FEF7E5FE14210AA8FEF7E1FEF3
:1013700001210804CDE90010002402940225049103
:10138000CDE907504FF4E01009906846FFF7CAFB1B
:1013900008B172B6FEE70F20CDE90A054FF4806070
:1013A000CDE90C4002210AA80E94FFF7CFFA0028DD
:1013B00001D072B6FEE70FB030BD704710B5406A7D
:1013C0000021C185C184FFF752FD10BD0168CA68C4
:1013D00022F49072CA6001684A6922F001024A61EF
:1013E000016B012904D10168CA6822F01002CA60A9
:1013F000202180F83E1000210163704708B590F865
:101400003E10222901D0022008BD82684FF480538B
:101410009A4201D1016921B1816A9A421BD04AB135
:101420000AE00268816A5268C2F308020A80816A8F
:10143000891C08E0026972B10268526802F07F02FA
:101440000A70816A491C8162C18D491E0904090C18
:10145000C18503D019E002685268F1E70168CA68E3
:1014600022F02002CA600168CA6822F48072CA6051
:1014700001684A6922F001024A61202180F83E1089
:10148000016B012903D0FFF781FE002008BD002178
:1014900001630168CA6822F01002CA6001680A6824
:1014A000D20602D50A6849680091818DFFF7DEFCFB
:1014B000EBE7000070B5044600680169E26821F4BA
:1014C0004051114301612169A068084361690843E3
:1014D0002168CA6841F20C639A430243CA602068DB
:1014E0004169A26921F44071114341611E4920689C
:1014F000884202D1FFF7D0FA01E0FFF7BDFA00EB16
:10150000C00101EB0012606864218000B2FBF0F3BF
:10151000B3FBF1F36FF018067343B2FBF0F5B2FBC7
:10152000F0F605EB8305322303EB0515B5FBF1F56A
:10153000B6FBF1F605F0F00505EB0615B2FBF0F68B
:10154000B2FBF0F0B0FBF1F06FF01802504306EB85
:10155000800003EB0010B0FBF1F0216800F00F00F9
:101560002844886070BD0000003801408162828597
:10157000C28500210164222280F83E2080F83C10C0
:101580000168CA6842F48072CA6001684A6942F020
:1015900001024A610068C16841F02001C160002079
:1015A00070472DE9F041984617460E460446069DC1
:1015B0001DE0681C1BD02DB1FFF72AF9A0EB080035
:1015C000A84214D92068C16821F4D071C160206894
:1015D000416921F001014161202084F83D0084F837
:1015E0003E00002084F83C000320BDE8F081206824
:1015F000006836EA000004D00020B842D9D00020AC
:10160000F3E70120F9E700000148FFF731BC0000D3
:1016100004010020FEE700000FB4054B10B503A93C
:10162000044A029800F028F810BC5DF814FB000092
:10163000CD170008380000200907090E002804DB38
:1016400000F1E02080F80014704700F00F0000F176
:10165000E02080F8141D704702E008C8121F08C17E
:10166000002AFAD170477047002001E001C1121F23
:10167000002AFBD1704700002DE9FF4F89B09B463F
:101680000446002506E025280BD05A460B999047C2
:10169000641C6D1C20780028F5D10DB02846BDE8EB
:1016A000F08F0027B8460122474900E0074314F8AD
:1016B000013F203B02FA03F00842F7D120782E28A0
:1016C00019D114F8010F47F004072A280ED06FF043
:1016D0002F022078A0F1300109290CD808EB8801ED
:1016E00002EB410100EB0108641CF2E70A98641C5C
:1016F00050F8048B0A9020780028CED0642808D0B7
:10170000692806D075281ED05A460B9990476D1C43
:1017100058E00A994FF00A0901C90A91002802DA33
:1017200040422D2102E0390504D52B218DF82010EF
:10173000012103E0F90704D02021F7E78A4608AE2B
:101740000DE00021FAE70A994FF00A0901C90A9150
:10175000F7E74946FEF7F8FC303106F8011D00288E
:10176000F7D1ADEB060000F12009780701D44FF066
:101770000108C84502DDA8EB090000E00020804612
:10178000002706E008A85A46C05D0B9990476D1CDB
:101790007F1C5745F6DB04E030205A460B999047F2
:1017A0006D1CB8F10001A8F10108F5DC05E016F8A0
:1017B000010B5A460B9990476D1CB9F10001A9F134
:1017C0000109F4DC641C65E70928010038B504460A
:1017D0008DF800004FF6FF73012269460248FFF7BB
:1017E00007FD204638BD000004010020FFF71EF869
:1017F000FFF7B4FDFFF758FDFFF78EFD01223049DA
:101800003048FFF7ADFC00224FF400512E48FEF7A0
:10181000FAFFFEF73FFE92210020FEF72DFD642027
:10182000FEF756FE294D264C60880004FCD528782A
:1018300030280ED0312812D0322816D033281AD0B2
:1018400034281ED0352822D0362826D037282AD052
:1018500032E008210020FEF79FFC606028E00821AC
:101860001020FEF799FCA06022E008212020FEF75E
:1018700093FCE0601CE008213020FEF78DFC206125
:1018800016E008214020FEF787FC606110E0082187
:101890005020FEF781FCA0610AE008216020FEF7DD
:1018A0007BFCE06104E008217020FEF775FC2062FB
:1018B000014607A0FFF7B0FE00206080B4E70000FB
:1018C0000000002004010020001001403C00002026
:1018D00025640D0A00000000000000000000000068
:1018E00001020304060708090000000001020304C6
:1018F00010190008000000203C00000058160008E5
:101900004C1900083C0000200C0500006816000877
:1019100000000000000000000000000000000000C7
:1019200000000000000000000000000000000000B7
:101930000000000001000000100000000000000096
:0C1940000024F400000000000000000083
:04000005080000ED02
:00000001FF
