:020000040800F2
:10000000D0070020ED010008091A00089D1800081B
:10001000051A0008B31300081926000800000000A4
:10002000000000000000000000000000C91E0008E1
:10003000B713000800000000911A0008EB1F000829
:10004000070200080702000807020008070200086C
:10005000070200080702000807020008070200085C
:10006000070200080702000807020008070200084C
:10007000070200080702000807020008070200083C
:10008000070200080702000807020008070200082C
:10009000070200080702000807020008070200081C
:1000A000070200080702000807020008070200080C
:1000B000070200084D200008070200080702000898
:1000C00007020008070200080702000807020008EC
:1000D00007020008D52100085D2200080702000879
:1000E00007020008070200080702000807020008CC
:1000F00007020008070200080702000807020008BC
:1001000007020008070200080702000807020008AB
:10011000070200080702000807020008070200089B
:10012000070200080702000807020008070200088B
:1001300000F002F800F04AF80AA090E8000C8244AF
:100140008344AAF10107DA4501D100F03FF8AFF28C
:10015000090EBAE80F0013F0010F18BFFB1A43F0A5
:1001600001031847444A0000644A0000103A24BFC3
:1001700078C878C1FAD8520724BF30C830C144BF0C
:1001800004680C607047000000230024002500264E
:10019000103A28BF78C1FBD8520728BF30C148BFEA
:1001A0000B607047662904F04283752900F0748063
:1001B000002070471FB500F0B9FB040000200021AB
:1001C00003F072FAE0601FBD10B510BD00F0CAFC6C
:1001D0001146FFF7EFFF02F021FD00F0E8FC03B449
:1001E000FFF7F2FF03BC02F0AAFA000009488047BB
:1001F00009480047FEE7FEE7FEE7FEE7FEE7FEE709
:10020000FEE7FEE7FEE7FEE704480549054A064B20
:1002100070470000ED1F000831010008D0010020E8
:10022000D0070020D0030020D0030020704700003A
:100230000FB4044910B503AA029800F065FB10BC86
:100240005DF814FB1800002070B50446856900684D
:10025000C10601D5302600E02026C00707D070BDBA
:10026000D4E9012130469047206A401C20626D1E6F
:10027000F6D570BD70B5044685690078C00707D112
:1002800070BDD4E9012120209047206A401C2062E3
:100290006D1EF6D570BD00002DE9F0410646002424
:1002A00010687529314616A510D0AFF300800028DC
:1002B00002DA404213A507E031688A0701D512A58A
:1002C00002E0490704D511A5012401E0AFF3008045
:1002D00000210A2206F1240709E0B0FBF2FCB0FB82
:1002E000F2F302FB1C00303078541846491C0028F9
:1002F000F3D123462A463046BDE8F04100F09EB8CF
:10030000000000002D0000002B0000002000000075
:100310002DE9F0474FF0000A89460446C0F820A0B6
:100320002046E1688847002876D0252806D0D4E901
:1003300001219047206A401C2062F1E7E1682046D5
:1003400000258847C4F81CA006460027C4F818A05A
:100350002A2E09D0304602F0EBF938B304EB8708B7
:10036000303EC8F8186019E059F8041B204604EB29
:1003700087029161E1688847012F064618D1E0693C
:10038000002820DA25F020051DE0D8F8180000EB41
:10039000800006EB40003038C8F818002046E168BD
:1003A0008847064602F0C4F90028EED1012F0AD092
:1003B0002E2E08D12046E16888477F1C0646022F72
:1003C00045F02005C4DBA069002803DA404245F06F
:1003D0000105A061E80701D025F01005B6B1A6F12E
:1003E0004100192802D8203645F400654A463146B6
:1003F000204625604D46FFF7D5FE58B1012806D0AE
:10040000ED1D25F0070000F1080989E704E005F17A
:10041000040985E730468AE7206ABDE8F08770471F
:1004200070477047704710B500F084FA006810BD3F
:1004300010B5044600F07EFA046010BD2DE9F047C7
:100440000D4699469246044600F124080168880644
:1004500004D5E06921F01001216000E00120A842EC
:1004600001DD471B00E00027A1697A1902EB0900B2
:10047000081AA0612078C00602D42046FFF7E4FEE7
:10048000002608E0D4E901211AF806009047206A06
:10049000401C761C20624E45F4DB2078C0060AD54D
:1004A0002046FFF7D1FE06E0D4E901213020904735
:1004B000206A401C2062381EA7F10107F4DC07E027
:1004C000D4E9012118F805009047206A401C2062F9
:1004D000281EA5F10105F3DC2046FFF7CBFE2078AE
:1004E000000602D50220BDE8F0870120FBE7704737
:1004F0002DE9FF4F0C461E464FF0FF378BB0D2E977
:100500000001DDF860800A908A46C1F30A5505B9FA
:100510003D46002108464FF00000BAF1000F00F4FC
:10052000400005DA00EB80004FF4400101EA500082
:100530004FEA9059B9F1010F00DDB9460A9850EA27
:100540004A000ED044F61050A5F2FF3545432F1453
:10055000B8F1000F1ED07542291E1EDDC9F1000240
:100560001CE0B8F1010F4FF0000001D0302103E092
:10057000F24305E02154401CB042FBDB3046002230
:10058000002121540B99C1F80880C1E900200FB067
:10059000BDE8F08FBD1B6D1CDEE74A4600DA6942FC
:1005A00006A800F069FA06AB93E8070003AB83E8FE
:1005B000070050460A9900F041FB8DE80700A0F5BE
:1005C00000501F3800900398002D09DD42F21F01F2
:1005D0004A46084403A90390684600F0A0FD08E0DD
:1005E000A0F500504A461F3803A90390684600F062
:1005F000AAFD8DE807000004000C03D04FF0FF3087
:10060000410800E01046B8F1000F03D0002200922C
:1006100015461EE0751E05D400F090F93032625583
:100620006D1EF9D5B3460122084302D000227F1C7B
:1006300004E02078302801D100227F1E002A09978B
:1006400086D01DE0112D07DA00F078F930326255BE
:100650006D1C50EA0102F5D1084302D00098C8B1E0
:100660000EE00021681E05E0235C625C63542254A6
:10067000401E491C8142F7DBAB46A81B401E099077
:10068000002004F80B000B98099AC0F80880C0E914
:10069000002B7CE711264FF0000859E72DE9F04FB9
:1006A00088460446D21D22F0070191B0D1E900012D
:1006B000CDE90A0101F0B2FF02460B98C00F01D04C
:1006C0002D2007E02068810701D52B2002E02021A2
:1006D00001EAC000032A099001D0072A05DB03467E
:1006E0004146204600F088F90BE12078800601D5CC
:1006F000E06900E00620B8F1650F814606D0B8F148
:10070000660F18D0B8F1670F70D131E00020B9F151
:10071000110F009001DB112301E009F101030AAA86
:1007200001A90CA8FFF7E4FEDDE90C70002609F131
:100730000105834647E001204B4600904FF00047FB
:100740000AAA01A90CA8FFF7D3FEDDE90DB00C99A8
:100750005D46002610B909F101000D18B9EB05003E
:1007600003D4C0F1FF3609F10105A5EB09002BE028
:10077000B9F1010F01DA4FF001090020B9F1110FB1
:100780000090484601DD112300E003460AAA01A9B2
:100790000CA8FFF7ADFEDDE90C704D460026834640
:1007A000207800070AD4AB4500DA5D4601A8012D88
:1007B00004DD411911F8011C302907D04F4502DA38
:1007C00017F1040F04DA012082460FE06D1EEEE7F8
:1007D000002F02DCED1B3E4403E0781CA84200DD44
:1007E0007D1CB81B00F1010A4FF00047207800077C
:1007F00003D4AA4501DB4FF0FF3A0021B7F1004FC7
:100800000DF143088DF8431024D002202B23002F34
:1008100001DA7F422D230A21021EA0F1010000DC33
:100820005FB197FBF1FC97FBF1F201FB1C7C1746D3
:100830000CF1300C08F801CDEEE7A8F101000370CF
:100840002188090501D5452100E06521A0F10108B5
:1008500000F8011C09980FA9A1EB0807FF1D00B1C2
:100860000120411901EBEA70A1693844081A401EC1
:10087000A0612078C00602D42046FFF7E5FC099865
:1008800028B1D4E901219047206A401C20622078D9
:10089000C00622D52046FFF7D7FC1EE0002E04DB61
:1008A000B34502DD01A8805D00E03020D4E90121DC
:1008B0009047206A401C2062761CAAF101005FEA82
:1008C000000A0AD100F032F8C0680168405CD4E93F
:1008D00001219047206A401C2062281EA5F10105D5
:1008E000DCDC07E0D4E9012118F8010B9047206A0D
:1008F000401C2062381EA7F10107F3DC2046FFF7F9
:10090000B9FC032011B043E6074B70B50D467B449C
:1009100000F05FF80446284600F01CF910B14FF0D3
:10092000FF3070BD204670BD0F1F000000487047AB
:100930008C010020004870476C01002030B5B0F1F8
:100940000A024FEA900E71F100034EEA817EB0EB8D
:100950000E0061EB91014FEA101E4EEA017E10EB92
:100960000E0041EB11114FEA102E4EEA016E10EB12
:100970000E0041EB11214FEA104E4EEA014E10EBF2
:100980000E0041EB1141401841F100014FEAD00047
:1009900040EA41704FEAD10110EB80054FEA810433
:1009A00044EA907444EB01046D1944EB0404521BB7
:1009B000A3414FF0000348BF0A3200D530BD401CB0
:1009C00041F1000130BD000001694A1C0261087854
:1009D000704700B58FB0CDE901310021059105497F
:1009E0007944CDE9031011466846FFF791FC0FB03A
:1009F00000BD0000E5FFFFFF2DE9F0411F46044662
:100A000003260168072A01F4006004DB08B116A57B
:100A100005E016A503E008B115A500E015A521F035
:100A200010002060A069C01EA0610FB1401EA0612F
:100A30002046FFF709FC4FB1D4E901213846904721
:100A4000206A401C2062C01C206206E0206AFAE78F
:100A5000D4E9012115F8010B9047761EF8D2204603
:100A6000FFF708FCBDE8F0814E414E006E616E005C
:100A7000494E4600696E66002DE9F04781461646EC
:100A80008AB0334878440DC88DE80D00304878446A
:100A9000801C03AC0DC884E80D0041F69B3008446F
:100AA000372190FBF1F290FBF1F5A5F1800501FBF8
:100AB00012041B3C02D56442012000E00020DFF854
:100AC00090A080460027FA44AAF1BE0A0DE0E00794
:100AD00009D03246684607EB47010AEB810100F076
:100AE00032FB8DE8070064107F1C002CEFD1184FFB
:100AF0007F44AC3F18E0E80714D007EB04100DF179
:100B0000180A90E80E008AE80E00C068F04201D191
:100B100098190890324606A903A800F014FB03AB0D
:100B200083E807006D10641C002DE4D1324669464D
:100B3000B8F1000F03A802D000F0F1FA01E000F0D4
:100B400002FBC9E90001C9F808200AB0BDE8F08736
:100B5000AC3F0000007B00F0800070470048704709
:100B60006C0100207546FFF7F9FFAE4605006946A7
:100B7000534620F00700854618B020B5FFF744FB28
:100B8000BDE820404FF000064FF000074FF000088E
:100B90004FF0000B21F00701AC46ACE8C009ACE80F
:100BA000C009ACE8C009ACE8C0098D4670470446EE
:100BB000AFF300802046FFF712FB00004FF0013C2E
:100BC00050F8042B51F8043B9A4221D1A2EB0C03BC
:100BD000934313EACC1317D150F8042B51F8043B7C
:100BE0009A4215D1A2EB0C03934313EACC130BD119
:100BF00050F8042B51F8043B9A4209D1A2EB0C03A4
:100C0000934313EACC13DBD04FF00000704700BFD2
:100C1000D01A01BAB1FA81F101F0180122FA01F0FB
:100C2000CB40C1F12001DBB2C0B2C01A2CFA01F3F3
:100C3000D11A914311EAC311E6D170475FEA400C23
:100C400008BF91F0000F4FEA8C234FEAC12243EA1C
:100C500051514FEA1C5018BF00F5F0404FEA3000E8
:100C600018BF41F000415FEA6C5C00F02980BCF1E4
:100C7000FF3F08BF40F080407047130C06BF1204CE
:100C80004FF0100C4FF0000C130E04BF12020CF1C9
:100C9000080C130F04BF12010CF1040C930F04BFD6
:100CA00092000CF1020CD30F04BF52000CF1010CA6
:100CB00011464FF00002A0F11F00A0EB0C0070479E
:100CC00011F0004F08BF704731F000413FF4D5AF3D
:100CD0000B0C06BF09044FF0100C4FF0000C0B0E6C
:100CE00004BF09020CF1080C0B0F04BF09010CF141
:100CF000040C8B0F04BF89000CF1020CCB0F04BF56
:100D000049000CF1010CCCF12003A0EB0C0022FAFD
:100D100003F302FA0CF241EA030100F1010070470B
:100D200020F07F4C80EA030023F07F47ACEB070301
:100D300003F57C5300F0004003F1FF032DE98049E7
:100D40004FEA154B09B44FEA144325EA0B4E24EA47
:100D500003480FF2042606EB132749083E785FEAA2
:100D6000320203FB0667C7F5000707FB06F64FEAEA
:100D700054374FEAD64606F1020607FB066CCCF163
:100D8000005C4FEA1C472CEA074C07FB06F40CFBFF
:100D900006F504EB15464FEA961634BF00204FF0D7
:100DA00000404FEAD13706FB07FC4FEA1C4C0CFB16
:100DB0000BF7D21B03FB0CF761EB07010CFB0EF7E3
:100DC000B0EB074072EB17420CFB08F734BFA2EB05
:100DD0000742B2EB074261EB17414FEA0C444FEA7E
:100DE000910706FB07FC4FEA1C4C0CFB0BF7B0EB22
:100DF000C74072EB573203FB0CF734BFA2EBC7427C
:100E0000B2EBC74261EB57310CFB0EF7B0EBC700FA
:100E100072EB57720CFB08F734BFA2EBC702B2EBC0
:100E2000C70261EB5771039F4FEA816141EA92115A
:100E300004EBCC044FEAD1374FEA826206FB07FC91
:100E400042EA90124FEA80604FEA1C4C0CFB0BF711
:100E5000D21B03FB0CF761EB07010CFB0EF7B0EBA9
:100E6000074072EB17420CFB08F734BFA2EB0742B6
:100E7000B2EB074261EB17414FEA8C554FEA9107FD
:100E800004EB9C2406FB07FC4FEA1C4C0CFB0BF705
:100E9000B0EBC74072EB573203FB0CF734BFA2EB49
:100EA000C742B2EBC74261EB57310CFB0EF7B0EB18
:100EB000C70072EB57720CFB08F734BFA2EBC702F6
:100EC000B2EBC70261EB577115EB4C254FEA81611C
:100ED00041EA92114FEA82624FEAD13742EA901218
:100EE00006FB07FC44F100044FEA80604FEA1C4C0B
:100EF0000CFB0BF7D21B03FB0CF761EB07010CFBA0
:100F00000EF7B0EB074072EB17420CFB08F734BF4B
:100F1000A2EB0742B2EB074261EB174115EB1C1540
:100F20004FEA813141EA92414FEA823242EA9042ED
:100F30004FEA80304FEA0C7644F1000448EA03435C
:100F40004EEA0B484FF0000EB2EB080C71EB0307B2
:100F500024BF624639464EEB0E0E4FF0000B0018D0
:100F6000524149414BEB0B0BB2EB080C71EB030701
:100F70007BF1000B24BF624639464EEB0E0E4FF05C
:100F8000000B0018524149414BEB0B0BB2EB080C24
:100F900071EB03077BF1000B24BF624639464EEB31
:100FA0000E0E51EA020718BF46F0010616EB0E7648
:100FB00055F1000254F1000103D5BDE88901BDE8F7
:100FC0000088BDE88901BDE80048B619524141EBEF
:100FD0000101A3F10103704780807F7E7D7C7B7AD5
:100FE0007978777676757473727171706F6E6E6DD5
:100FF0006C6C6B6A6A69686867666665646463637B
:1010000062616160605F5F5E5E5D5D5C5C5B5B5A00
:101010005A5959585857575656555555545453536D
:1010200052525251515050504F4F4F4E4E4D4D4DC8
:101030004C4C4C4B4B4B4A4A4A4949494848484713
:101040004747474646464545454444444443434351
:101050004342424242414141002B26D4770021D0F5
:101060001CB54FEA370703B44FF010004FF01001E2
:101070004FF000000FBCBDE810400BF1010BBBF1BD
:10108000010F08BF5FEA170722BF12F1010211F139
:1010900001014FF0004143F1000300F0004043EA3A
:1010A00000007047F9D35708DAE746EA064613F11D
:1010B000400F4FEA16461FDD13F1200FDFBF164326
:1010C0000A46002120335B42C8D0C3F1200746EA1C
:1010D000064602FA07F74FEA164646EA0706C3F144
:1010E000200722FA03F201FA07F721FA03F14FF081
:1010F000000342EA0702B1E746EA020646EA06466C
:101100004FEA164646EA0106BCBF46EA0646360CDA
:101110004FF000034FF000024FF000019EE72DE971
:10112000C048934630B491E8380007C831EA400C13
:1011300048BF34EA430C03D5FFF7F2FDFFF78CFFFD
:10114000F0BCBDE800882DE9C048934630B491E872
:10115000380007C810F0804F08BF13F0804F03D14C
:1011600000F005F8FFF778FFF0BCBDE8008820F03C
:101170007F4780EA030023F07F4C07EB0C03A3F5C5
:101180007C5300F00040A3F1FE0392F0000F00F04A
:10119000B38095F0000F00F077802DE901494FEA08
:1011A00011404FEA144621EA004800FB06FC24EAFD
:1011B000064708FB06F607FB08F800FB07F718EBE5
:1011C00006484CEB164C4FEA124B18EB07484FEA17
:1011D00015464CEB174022EA0B4E0BFB06FC25EAAA
:1011E00006470EFB06F607FB0EFE0BFB07F71EEB92
:1011F000064E4CEB164C4FF000061EEB074E4CEB28
:10120000174B18EB0B0840F1000018EB0E0B58EBD6
:10121000000840F100008F1A4FF000013CBFC943A5
:10122000661B14BFB5EB040C00213CBFC943F61B81
:101230004FEA17444EEA8E0E27EA04454FEA1C4750
:1012400004FB07622CEA074C05FB07F70CFB05F6CD
:1012500004FB0CFC16EB074642EB174216EB0C4660
:1012600042EB1C421BEB060658EB0202414146EAE8
:101270009E0601D5BDE80189B619524141EB010135
:10128000A3F10103BDE801894FEA14454FEA114774
:1012900024EA054621EA074C05FB07F406FB07F79D
:1012A0000CFB06F105FB0CFC11EB074144EB17446A
:1012B0004FEA124711EB0C4144EB1C4422EA074C65
:1012C00005FB07F206FB07F70CFB06F605FB0CFC1B
:1012D00016EB074642EB174216EB0C4642EB1C4559
:1012E0006A1854F1000148BF7047B619524141EBEA
:1012F0000101A3F10103704795F0000F37D04FEAC9
:1013000011424FEA144721EA024624EA074C02FB45
:1013100007F106FB07F70CFB06F402FB0CFC14EBD1
:10132000074441EB17414FEA154714EB0C4441EBDE
:101330001C4125EA074C02FB07F506FB07F70CFBEF
:1013400006F602FB0CFC16EB074645EB174516EBC1
:101350000C4645EB1C42121951F1000148BF704781
:10136000B619524141EB0101A3F1010370474FEA65
:1013700014454FEA114724EA054621EA074C05FBCC
:1013800007F106FB07F70CFB06F24FF0000605FB22
:101390000CFC12EB074241EB174112EB0C4251EBF4
:1013A0001C4148BF7047921841EB0101A3F10103B2
:1013B000704700BFFEE7704710B5024605E04FF4E6
:1013C000FA6100E0491E0029FCD11300A2F10102DC
:1013D000F5D110BD02460020054B18684FF680730A
:1013E000184040EA02100843014B186070470000A3
:1013F000000001402DE9F0410246002500260020B2
:1014000000230024002791F803C00CF00F0591F889
:1014100003C00CF0100CBCF1000F03D091F802C017
:101420004CEA050591F800C0BCF1000F31D01468FA
:1014300000202BE04FF0010C0CFA00F3B1F800C0D3
:101440000CEA03069E4220D183004FF00F0C0CFAE9
:1014500003F7BC4305FA03FC4CEA040491F803C00B
:10146000BCF1280F06D14FF0010C0CFA00FCC2F8B9
:1014700014C00AE091F803C0BCF1480F05D14FF049
:10148000010C0CFA00FCC2F810C0401C0828D1D393
:101490001460B1F800C0BCF1FF0F34DD54680020C7
:1014A0002EE000F1080C4FF0010808FA0CF3B1F837
:1014B00000C00CEA03069E4221D183004FF00F0CBE
:1014C0000CFA03F7BC4305FA03FC4CEA040491F858
:1014D00003C0BCF1280F05D100F1080C08FA0CF884
:1014E000C2F8148091F803C0BCF1480F07D100F195
:1014F000080C4FF0010808FA0CF8C2F81080401CE4
:101500000828CED35460BDE8F081024600209368DD
:101510000B400BB1012000E0002070474161704793
:10152000016170470AB1016100E04161704700004C
:101530002DE9FE4F8E48029012E141F288308D492C
:1015400008608D4800688D4908608D48006808B9BA
:10155000012000E000208A4909680A2901D10121FF
:1015600000E000210843002844D086480178029812
:1015700001F0C2FA84480178029801F0BDFA00BF78
:1015800010218248FFF7C1FF0128F9D08048006888
:1015900002F05CFE04460D4610200023B022042118
:1015A0000090029801F0E4F9019002F04FFE8046AD
:1015B00042460B460020774902F07AF90646224659
:1015C0002B4602F033FB824602F084F87249086031
:1015D0000846006802F03AFE044622460B466FA019
:1015E000FEF726FE6C4801686948006802F0DEFFDD
:1015F0007449086063480178029801F07DFA7248E6
:101600000178029801F078FA00BF10215F48FFF7D7
:101610007CFF0128F9D06D4A8121029801F092FAED
:1016200058480178029801F067FA012211025748E0
:10163000FFF778FF00224FF480715448FFF772FFE4
:10164000022001F0C7F8012251025048FFF76AFF5B
:1016500000224FF400714D48FFF764FF00BF1021D6
:101660004A48FFF752FF0128F9D0002220215848AC
:10167000FFF758FF57A0FEF7DBFD10200023B02234
:1016800004210090029801F073F955490860554A09
:101690008121029801F056FA10200123B022042182
:1016A0000090029801F064F9334908604AE0334839
:1016B00001683148006802F0F5FD04464FF08041B2
:1016C00002F05EFE48490860084601684448006828
:1016D00002F056FE0446454902F068FF444908609E
:1016E0000846006802F0B2FD0646424A424B02F04C
:1016F000DFF8044601F0EEFF404908603848006812
:1017000002F0A4FD04460D463948006802F09EFD33
:10171000064632460B463AA0CDE90045FEF788FD65
:101720003648006802F092FD044622460B4643A06C
:10173000FEF77EFD0F48016849A0FEF779FD002005
:101740000E49086000210D48006802F0DBFEAED1B2
:101750004EA0FEF76DFD0A480068401C084908606D
:10176000074800680B287FF4E8AEBDE8FE8F000054
:101770000038004064000020500000204C00002091
:101780009400002084000020880000200014014004
:101790003C00002080844E40440000200A20436F1B
:1017A0007272656374696F6E20666163746F722014
:1017B000666F7220636C6F636B203D2025312E3481
:1017C000660A00004000002089000020000049193E
:1017D000000C01400A2032323232323232200A000A
:1017E00058000020000049674800002000007A44AB
:1017F0005C000020734E008664AF1A406000002039
:101800000A2054696D65204D6561737572652052BB
:101810006573756C742028546F4629203D20252E51
:101820003666206E732020205241575F52657375D3
:101830006C743D252E3666206E730A0020636F722D
:10184000726573706F6E647320746F20252E33661B
:10185000206D206F662044697374616E63650A00B1
:1018600020746F207265666C656374656420706FA8
:10187000696E74206166746572202575204D6561FE
:10188000737572656D656E74730A00000A4E455774
:10189000204359434C452E2E2E0A000000BFFEE780
:1018A00008B50121442000F015F91C20ADF8000016
:1018B00048208DF8030069460648FFF79BFD01208C
:1018C000ADF8000028208DF8030069460248FFF7B4
:1018D00091FD08BD001801400008014010B5044604
:1018E00014B101202C4908702B480078002837D00B
:1018F00010212A48FFF709FE78B108212748FFF791
:1019000004FE50B104212548FFF7FFFD28B1012155
:101910002348FFF7FAFD012822D10A2000F034FF06
:1019200000201D49087010211C48FFF7EEFD08B982
:10193000012010BD08211948FFF7E7FD08B9022072
:10194000F7E704211548FFF7E0FD08B90320F0E7A9
:1019500001211348FFF7D9FD01281BD10420E8E736
:1019600010210E48FFF7D1FD012813D108210B48A3
:10197000FFF7CBFD01280DD104210848FFF7C5FD75
:10198000012807D101210648FFF7BFFD10B901204A
:10199000014908700020CCE7A00000200018014099
:1019A0000008014008B50121082000F093F801214A
:1019B000402000F08FF810208DF803002020ADF8B3
:1019C000000003208DF8020069460C48FFF712FD65
:1019D00020210A48FFF7A4FD10208DF803002020E5
:1019E000ADF8000003208DF8020069460448FFF7B7
:1019F00001FD20210248FFF793FD08BD000C0140C6
:101A00000018014000BFFEE77047000070B50021DC
:101A100000230F22C47804B3154C246804F4E06456
:101A2000C4F5E064210AC1F10403CA40447804FA11
:101A300003F184781440214309010E4C0678A15526
:101A4000047804F01F050124AC4005786D11AD0049
:101A500005F1E025C5F8004109E0047804F01F0510
:101A60000124AC40044D0678761145F8264070BD3F
:101A70000CED00E000E400E080E100E002490143F9
:101A8000024A1160704700000000FA050CED00E00A
:101A90007047000029B1064AD2690243044BDA615B
:101AA00004E0034AD2698243014BDA6170470000C7
:101AB0000010024029B1064A12690243044B1A6120
:101AC00004E0034A12698243014B1A617047000027
:101AD0000010024029B1064A92690243044B9A6100
:101AE00004E0034A92698243014B9A617047000007
:101AF0000010024029B1064AD2680243044BDA6062
:101B000004E0034AD2688243014BDA607047000068
:101B10000010024030B500210022002400232D4D8A
:101B20006D6805F00C0121B1042905D0082923D1E5
:101B300005E0294D056022E0274D05601FE0254D99
:101B40006D6805F47012234D6D6805F4803402252C
:101B500005EB92421CB9214D554305600BE01D4D2C
:101B60006D6805F400351DB11C4D5543056002E05C
:101B7000194D5543056002E0174D056000BF00BFD9
:101B8000144D6D6805F0F0010909154D6B5C056891
:101B9000DD4045600F4D6D6805F4E061090A104DA8
:101BA0006B5C4568DD4085600A4D6D6805F46051E9
:101BB000C90A0B4D6B5C4568DD40C560054D6D681D
:101BC00005F44041890B074D6B5CC568B5FBF3F527
:101BD000056130BD0010024000127A0000093D008E
:101BE0001E0000202E00002000B587B00121082033
:101BF000FFF770FF01212020FFF76CFF0121880310
:101C0000FFF748FF03208DF8060010208DF807002D
:101C10000002ADF8040001A95148FFF7EBFB4FF4B7
:101C200080514F48FFF77CFC4FF46040ADF8040052
:101C300018208DF8070003208DF8060001A94848F8
:101C4000FFF7D8FB474800F0DBF803208DF80600CB
:101C500028208DF807001020ADF8040001A94248A3
:101C6000FFF7C8FB002210213F48FFF75BFC032071
:101C70008DF8060010208DF807000820ADF804004C
:101C800001A93948FFF7B6FB012208213648FFF7C2
:101C900049FC03208DF8060010208DF80700000194
:101CA000ADF8040001A93048FFF7A4FB0821032088
:101CB000FFF790FB00224FF480712B48FFF732FCB6
:101CC00010208DF807004001ADF8040003208DF8C6
:101CD000060001A92448FFF78DFB00224FF4007194
:101CE0002148FFF71FFC10208DF80700E020ADF819
:101CF000040003208DF8060001A91B48FFF77AFBBA
:101D0000E0211948FFF70CFC0020ADF808004FF463
:101D10008270ADF80A000020ADF80C00ADF80E009E
:101D20000120ADF810004002ADF812003820ADF8E7
:101D300014000020ADF816000720ADF8180002A925
:101D4000084800F097F80121064800F04DF80121FD
:101D5000044800F0ADF8FF2000F008F807B000BD1F
:101D6000000C0140003800400014014070B50546E9
:101D7000002405E0601CC4B2C82C01DD002070BD49
:101D800002210E4800F068F80028F3D029460B48DD
:101D900000F06EF8002405E0601CC4B2C82C01DD20
:101DA0000020ECE70121054800F056F80028F3D0A8
:101DB000024800F05AF8C0B2E1E7000000380040E5
:101DC00010B50446074800884FF6C771084005491A
:101DD000088008460088204308800121014800F05F
:101DE00003F810BD0038004021B1028842F04002E3
:101DF000028004E002884FF6BF731A4002807047E9
:101E000010B504461148844208D101218014FFF71F
:101E100071FE0021A014FFF76DFE16E00C4884420D
:101E200008D101210014FFF745FE00212014FFF71F
:101E300041FE0AE00748844207D10121C013FFF7A1
:101E400039FE0021E013FFF735FE10BD00300140E0
:101E500000380040003C00400246002013890B403F
:101E60000BB1012000E000207047014688897047CF
:101E70008181704710B50022028802F441520B881C
:101E80004C8823438C882343CC8823430C892343E9
:101E90004C8923438C892343CC8923431A430280F2
:101EA000838B4FF2FF74234083830B8A038210BD20
:101EB00021B1828842F00402828004E082884FF6D9
:101EC000FB731A4082807047704710B500F002F82B
:101ED00010BD00000CB50020019000903348006850
:101EE00040F480303149086000BF3048006800F499
:101EF000003000900198401C0190009818B901989A
:101F0000B0F5A06FF1D12948006800F4003010B19D
:101F10000120009001E0002000900098012843D1AA
:101F20002348006840F01000214908600846006816
:101F300020F0030008600846006840F002000860D6
:101F40001A48406819494860084640684860084691
:101F5000406840F4806048600846406820F47C1087
:101F600048600846406840F4E81048600846006849
:101F700040F08070086000BF0C48006800F00070FE
:101F80000028F9D00948406820F00300074948605C
:101F90000846406840F00200486000BF03484068BF
:101FA00000F00C000828F9D10CBD00000010024020
:101FB000002002400246114600E0491E0029FCD1E3
:101FC0007047042808D14FF0E021096941F004016D
:101FD0004FF0E022116107E04FF0E021096921F0A4
:101FE00004014FF0E02211617047704710B51348AB
:101FF000006840F001001149086008464068104937
:1020000008400E494860084600680E4908400B49E0
:1020100008600846006820F4802008600846406890
:1020200020F4FE0048604FF41F008860FFF74DFF6A
:102030004FF000600449086010BD0000001002402D
:102040000000FFF8FFFFF6FE08ED00E010B50121EB
:10205000104800F03AF8E0B101210E4800F026F8EF
:10206000012251020C48FFF75DFA00224FF4007183
:102070000948FFF757FA012220210848FFF752FAD2
:10208000601CC4B206A0FEF7D3F80021014800F09E
:1020900010F810BD00040040001401400018014079
:1020A0000A2031313131200A00000000CA43028287
:1020B000704721B1028842F00102028004E00288E8
:1020C0004FF6FE731A400280704730B5024600207A
:1020D00000230024158A05EA0103958905EA010415
:1020E00013B10CB1012000E0002030BD10B5174C39
:1020F00017480178204600F0FFFC0520FFF75CF947
:10210000144A8021204600F01DFD134A81212046FB
:1021100000F018FDA2048221204600F013FD0022E9
:102120008321204600F00EFD4FF00052842120460E
:1021300000F008FD4FF080528521204600F002FD9E
:10214000A2148621204600F0FDFC10BD003800409E
:1021500085000020001024000000C901F8B5002708
:102160000124174D17480178284600F0C5FC4FF0B0
:1021700008528121284600F0E5FC00200523B0220A
:1021800001210090284600F0F3FB064602F0EEF92C
:10219000C4B2222C09D159210B4800F0A6F9202104
:1021A0000A48FFF7BBF90020F8BD4E21064800F0B1
:1021B0009CF9002220210648FFF7B4F90120F3E73B
:1021C0000038004085000020003801400018014020
:1021D000000C014010B540F225511D4800F0C4F834
:1021E00010B31B4800F07CF9C4B21A48008800F410
:1021F0000040C8B91748008800F4804060B10A2C3C
:1022000003D000201349088020E01248008840F4E1
:1022100000401049088019E00D2C06D10D480088B7
:1022200040F480400B49088010E00A480088C0F361
:102230000D0009490C5407480088401C05490880D6
:1022400008460088C72801DD0020088010BD000076
:10225000003801401C000020A400002010B540F20E
:1022600025510A4800F080F850B1012211020848B7
:10227000FFF758F900224FF480710548FFF752F933
:1022800040F22551014800F005F810BD004400401F
:102290000008014010B50022002340F66A14A14254
:1022A00000D100BF0A1201249440A3B2DC43048091
:1022B00010BD21B1828942F40052828104E08289FA
:1022C0004DF6FF731A4082817047000010B5044636
:1022D0002048844209D101218803FFF70BFC00212B
:1022E0004FF48040FFF706FC32E01B48844209D1DE
:1022F00001214804FFF7DEFB00214FF40030FFF717
:10230000D9FB25E01548844209D101218804FFF753
:10231000D1FB00214FF48020FFF7CCFB18E01048E0
:10232000844209D10121C804FFF7C4FB00214FF406
:102330000020FFF7BFFB0BE00A48844208D10121CF
:102340000805FFF7B7FB00214FF48010FFF7B2FB41
:1023500010BD00000038014000440040004800402B
:10236000004C00400050004070B50246002400239D
:102370000025002040F66A16B14200D100BFC1F32B
:10238000421501F01F03012606FA03F3012D02D1C5
:102390009689334006E0022D02D1168A334001E0CF
:1023A000968A33400C12012606FA04F4168834404B
:1023B00013B10CB1012000E0002070BDF0B5034660
:1023C000002400260025002040F66A17B94200D1FB
:1023D00000BF1846C1F3421401F01F06012707FA97
:1023E00006F5012C01D10C3004E0022C01D1103093
:1023F00000E014301AB107682F43076002E0076855
:10240000AF430760F0BD00002DE9F04786B00546F8
:102410000E460024A24600BFA1460027B08900B1A5
:1024200000BF2F462C8A4CF6FF700440F08804430E
:102430002C82AC894EF6F3100440B08831890843F1
:10244000718908430443AC81AC8A4FF6FF400440D5
:10245000B0890443AC8201A8FFF75CFB1F488742A8
:1024600002D1DDF810A001E0DDF80CA0A88900F48D
:10247000004040B10AEBCA0000EB0A103168490085
:10248000B0FBF1F807E00AEBCA0000EB0A10316874
:102490008900B0FBF1F86420B8FBF0F004012009DA
:1024A000642101FB1089A88900F4004040B132206A
:1024B00000EBC900B0FBF1F000F00700044308E0B6
:1024C000322000EB09106421B0FBF1F000F00F00A6
:1024D00004432C8106B0BDE8F087000000380140BD
:1024E00001468888C0F308007047C1F30802828063
:1024F0007047000000B587B04448FFF7E7FE444846
:10250000FFF7E4FE012144F20400FFF7E3FA0121A2
:102510004804FFF7BFFA18208DF81B004FF4007035
:10252000ADF8180003208DF81A0006A93948FEF707
:1025300061FF04208DF81B000002ADF81800032095
:102540008DF81A0006A93348FEF754FF18208DF8BD
:102550001B000420ADF8180003208DF81A0006A90E
:102560002C48FEF747FF04208DF81B000820ADF82B
:10257000180003208DF81A0006A92648FEF73AFF36
:1025800026208DF8040001208DF8070002208DF828
:1025900005008DF8060001A8FFF738FA4FF4165031
:1025A00002900020ADF814000C20ADF812000020BD
:1025B000ADF81000ADF80E00ADF80C0002A91448FB
:1025C000FFF722FF01211248FFF773FE4FF4165068
:1025D00002900020ADF814000C20ADF8120000208D
:1025E000ADF81000ADF80E00ADF80C0002A90748D8
:1025F000FFF70AFF012240F225510448FFF7DEFEF3
:1026000001210248FFF755FE07B000BD004400401D
:10261000003801400008014000BFFEE7490050EAD1
:10262000C12018BF04204A0D18BF40F0010040F23D
:10263000FF72B2EB515F08BF40F00200012808BFF3
:10264000052070472DE9F0414F1E00EBC7010446FD
:10265000D1E9000115461E4637F006020DD02A4684
:10266000334601F0E3FA7F1E04EBC703D3E90023EE
:1026700001F062F837F00602F1D1022F25D0042FC5
:1026800013D0062F18BFBDE8F0812A46334601F06B
:10269000CDFAD4E90A2301F04FF82A46334601F077
:1026A000C5FAD4E9082301F047F82A46334601F079
:1026B000BDFAD4E9062301F03FF82A46334601F07B
:1026C000B5FAD4E9042301F037F82A46334601F07D
:1026D000ADFAD4E9022301F02FF82A46334601F07F
:1026E000A5FAD4E90023BDE8F04101F025B80000C7
:1026F000002213461046014901F0DAB80000F03F0D
:1027000001F01AB8002213461046114601F0D0B865
:1027100040F2013200204FF0E04102F0BCB800006E
:10272000024A0020110702F0B6B8000001FDFFFFC9
:1027300030380A2801D20120704700207047014636
:1027400000BF704710B56FF00400FFF73AFC0A486D
:1027500000680A49B0FBF1F00949087008460078A2
:1027600000EB4001C1EBC0104FF6FF7101EAC00061
:102770000449088010BD00000000002000127A000B
:1027800014000020160000200146114A12884A4316
:102790004FF0E0235A6100229A611A46126942F012
:1027A00001021A6100BF4FF0E022106900F001023F
:1027B0001AB100F48032002AF5D04FF0E0221269FD
:1027C00022F001024FF0E0231A6100229A61704763
:1027D000160000200146114A12784A434FF0E023C8
:1027E0005A6100229A611A46126942F001021A6186
:1027F00000BF4FF0E022106900F001021AB100F4AE
:102800008032002AF5D04FF0E022126922F0010256
:102810004FF0E0231A6100229A61704714000020F3
:1028200000BF054A128802F04002002AF9D0C2B265
:10283000014B1B1D1A8070470038014070B50546DA
:102840000024284600F006F9044604F40070B0F5B0
:10285000007F02D119A0FDF7EBFC04F48060B0F515
:10286000806F02D12348FDF7E3FC04F40060B0F56B
:10287000006F02D12048FDF7DBFC04F48050B0F576
:10288000805F02D11DA0FDF7D3FC04F40050B0F529
:10289000005F02D12748FDF7CBFC04F48040B0F57F
:1028A000804F02D12448FDF7C3FC04F40040B0F58A
:1028B000004F02D121A0FDF7BBFC70BD0A2D496E6F
:1028C0006469636174657320616E206F76657266FA
:1028D0006C6F77206F6620746865205444432075C0
:1028E0006E69742CB1EDCABE544443B5A5D4AAD2C6
:1028F000E7B3F600504B0008FC4A00080A2D496E69
:102900006469636174657320612073686F727465B4
:10291000642073656E736F722061742074656D70CE
:1029200065726174757265206D6561737572656D30
:10293000656E7400A84A00084C4A00080A2D5369C5
:102940006E676C65206572726F7220696E204545F6
:1029500050524F4D20776869636820686173206228
:1029600065656E20636F7272656374656400000054
:102970002DE9F04F89B083460E4691469A460024D1
:102980000020079049EA0A00069000224FF4805187
:102990002F48FEF7C7FD58460699FFF769FA00BFB2
:1029A00002215846FFF758FA0028F9D00A20FFF70D
:1029B00001FB5846FFF759FA02215846FFF74CFA37
:1029C000F1215846FFF754FA00BF01215846FFF79E
:1029D00043FA0028F9D05846FFF747FA0446012584
:1029E00010E0F1215846FFF743FA00BF0121584695
:1029F000FFF732FA0028F9D024025846FFF735FADB
:102A000004436D1CB542ECDB012211031048FEF7B4
:102A100089FD129801F0BBF807463A460B460020A4
:102A20004FF0804100F03EF9CDE90201204601F06F
:102A3000AEF8CDE90001DDE9022300F039FFCDE970
:102A4000040100F047FE0790079809B0BDE8F08F39
:102A5000000C01402DE9F0410646002402274FF00A
:102A6000B4080022F9022348FEF75CFD41463046D7
:102A7000FFF7FEF900BF02213046FFF7EDF900280D
:102A8000F9D00A20FFF796FA3046FFF7EEF9022157
:102A90003046FFF7E1F9FF213046FFF7E9F900BFC3
:102AA00001213046FFF7D8F90028F9D03046FFF76A
:102AB000DCF90446012513E0FF213046FFF7D8F981
:102AC00000BF01213046FFF7C7F90028F9D04FF6C3
:102AD000FF7000EA04243046FFF7C7F904436D1C79
:102AE000BD42E9DB012211030248FEF71BFD20462F
:102AF000BDE8F081000C014070B504460D4600228F
:102B00004FF480510E48FEF70DFD00BF0221204614
:102B1000FFF7A2F90028F9D029462046FFF7A8F9C7
:102B200000BF02212046FFF797F90028F9D00A20BC
:102B3000FFF740FA012211030148FEF7F3FC70BDD4
:102B4000000C01402DE9F04705460E461446E7B259
:102B5000C4F30728C4F307494FEA146A00224FF46C
:102B600080512D48FEF7DEFC00BF02212846FFF70A
:102B700073F90028F9D031462846FFF779F90A2081
:102B8000FFF718FA00BF02212846FFF765F9002871
:102B9000F9D051462846FFF76BF90A20FFF70AFAE9
:102BA00000BF02212846FFF757F90028F9D049460F
:102BB0002846FFF75DF90A20FFF7FCF900BF022164
:102BC0002846FFF749F90028F9D041462846FFF783
:102BD0004FF90A20FFF7EEF900BF02212846FFF760
:102BE0003BF90028F9D039462846FFF741F90A2079
:102BF000FFF7E0F900BF02212846FFF72DF9002872
:102C0000F9D00A20FFF7D6F9012211030248FEF796
:102C100089FCBDE8F0870000000C014038B50020B9
:102C2000009001241E4D4FF4A060FEF727FFFFF730
:102C300061FCFEF7D9FF0820FFF7C2F8FFF782FD1D
:102C4000FEF7B0FEFEF72CFEFFF788FA04460CB93B
:102C5000FFF74CFA012C02D12846FFF7EFFD1AE0EE
:102C60000020FEF73BFE00909DF8000080B19DF82B
:102C70000000012808D0022805D0032802D004282B
:102C800005D104E003E002E0FEF752FC00BF02E0E1
:102C90000A20FFF779FD002CE2D0002038BD0000AB
:102CA000003800402DE9F04D16460F4694B01C4602
:102CB00021F0004123F00042002814BF4FF0010C26
:102CC0004FF0000C0CEB470CFE4B0CEB03054FEAEE
:102CD000630C65452BD3350018BF012505EB440572
:102CE0001D44F94B9D4222D3F84B52EA060C02D008
:102CF0009F4205D148B914B000201946BDE8F08DB7
:102D0000002808BF4FF0000C01D04FF0010C0CEB75
:102D1000470313F5001F0AD8002E14BF4FF0010C13
:102D20004FF0000C0CEB440313F5001F07D914B04F
:102D3000324623463946BDE8F04DFFF7E1BCDFF8E7
:102D400090834FF0000A002FB8BF424523DAE14BD1
:102D50009A42A8BF4FF0020A1DDADC4B93421ADCFC
:102D6000DD4B03EB2253142B08DDC3F1340C26FAA0
:102D70000CF303FA0CFCB4450DD108E05EB9C3F1C5
:102D8000140C22FA0CF303FA0CFC944503D103F063
:102D90000103C3F1020A51EA00031BD1002C19DA26
:102DA000002F18BFBAF1020F02D0BAF1010F07D0FD
:102DB0000220FDF73DFB14B0BDE8F04DFFF798BCD5
:102DC0000220FDF735FBFFF793FC14B081F00041C2
:102DD000BDE8F08D330070D1424525D107F1804226
:102DE00012F5801201BF00280020B84914B008BFB6
:102DF000BDE8F08DB548884207DC002CA1BF18461D
:102E0000214614B0BDE8F08D07E0002CBFBF184686
:102E100084F0004114B0BDE8F08DB0497944D1E9A7
:102E2000000114B0BDE8F08DDFF8A0C262452AD1E0
:102E3000002C24DA39B1414517D1002804BF002005
:102E400002461CD106E040B10220FDF7F1FAFFF77F
:102E50005FFC0A46394600F0D7BA9D4A394614B09D
:102E6000002062F31E01BDE8F08D08DA14B03B4685
:102E7000BDE8F04D02460020614600F019BD14B0D7
:102E80003946BDE8F08D414517DAB4F1804F0CD0DA
:102E9000A4F10053B3F1FF530FD13B1E0DDB14B06F
:102EA0001946BDE8F04D00F0D9BB3B4614B00246D0
:102EB000BDE8F04D194600F0B9BE050027F000430B
:102EC0003AD1E1B1414537D1002F06DD002CA1BF39
:102ED0000020414614B0BDE8F08D002F01DD002C2C
:102EE0001FDB002F16DA002C14DBBAF1010F4FF0B4
:102EF000000014BF76497A4914B0BDE8F08DBAF1EC
:102F0000020F18BF002F0CD0BAF1010F09D1002F0A
:102F100007DA0BE0002FB8BF002C0DDABAF1010F71
:102F200004D0002014B00146BDE8F08D14B000209C
:102F30004FF00041BDE8F08D4FF0010808EBE77C51
:102F4000CDF814C05CEA0A0C0DD0DFF898C16245D8
:102F50007EDDDFF894C1654B624512DD8B420ADBF2
:102F6000002C18DB23E00120FDF762FA14B0BDE865
:102F7000F04DFFF7C7BB554A8A4202DC002C0ADC41
:102F800015E0994202DA002C11DA04E04F4B994225
:102F900019DD002C0BDD0220FDF74AFAFFF7B8FB24
:102FA0004B4A14B061F31E021146BDE8F08D0220B9
:102FB000FDF73EFAFFF7B4FB444A14B061F31E027A
:102FC0001146BDE8F08D0022394601F055F807465C
:102FD0000D466FF0010201F05EFC4FF05532444B9C
:102FE00000F058FF3A462B4600F020FE0022414BED
:102FF00000F050FF80468B463A462B461046194655
:1030000000F014FE42465B4600F010FE88460E902B
:103010004FF0C042384B3846294600F007FE834641
:103020000091364A344B41460E9800F0FFFD804631
:103030000191334A334B3846294600F0F7FD4246AA
:10304000019B01F019F80D4602460B460C9000E07A
:1030500011E05846009900F06FFB002788465A4659
:103060003846009B01F008F82B460C9A00F012FF3E
:10307000024600F079B90020B1F5801F07DA352249
:103080002846194601F007FC05466FF0340000EBB6
:103090002150A0F2FF300190C1F3130040F07F6196
:1030A00041F04051029118498842D8BF4FF0000BBF
:1030B00035DD16498142C8BF4FF0010B2FDC4FF0C0
:1030C000000B25E0FFFF1F00FFFF0F000000F03F97
:1030D0000000F07F0000404301FCFFFF901B000058
:1030E0000000F0FF0000E0410000F043FFFFEF3F71
:1030F0005555D53F0000E03F4715F73FFE822B6551
:1031000044DF5DF80BAE543E8E9803007AB60B0098
:103110000198401C01900298A0F580100290FF4891
:103120000299784400EBCB000991D0E900232846AE
:103130000B93129200F0A0FF00910A9028460B9B7F
:10314000129A099900F0F8FA02460B460020F44959
:1031500000F0AEFBCDE90C010B46024600990A983F
:1031600000F064FD0690EF488846002778440299F5
:10317000006810904FF0005040EA610000EB8B4077
:1031800000F5002102910B9B129A109800F074FF39
:103190002A46099B00F07EFE3A46434600F046FD73
:1031A0000891129038464146029B109A00F03EFD6D
:1031B000009B0A9A00F06EFE089B129A00F05CFFDA
:1031C000DDE90C2300F032FD0B91069A1290434684
:1031D0001046194600F02AFD05460246D2480B4625
:1031E0000A9106217844FFF72DFA0A9B2A46089196
:1031F00002901046194600F019FD089B029A00F053
:1032000015FD05460991434638461946069A00F0D1
:1032100093FA0B9B129A00F009FD2A46099B00F0D5
:103220008BFACDE908013A4643461046194600F0AC
:10323000FDFC0A910022BD4B009000F07DFADDE913
:10324000082300F079FA0D463A46B84B384600F0AC
:1032500013FF0A9B009A00F00FFFDDE9082300F03E
:1032600019FECDE908013A462B461046414600F0CA
:10327000DDFC00910A90DDE908014346069A00F062
:10328000D5FC069088462B463A460B99129800F0DA
:10329000CDFC4346069A00F04FFA80460B460246A4
:1032A0000D9100990A9800F047FA00200F46054654
:1032B000009B0A9A00F0E0FE42460D9B00F0EAFDFA
:1032C00088460E904FF06042994B2846394600F0F0
:1032D000ADFC02910090974A954B41460E9800F044
:1032E000A5FC80460391944A944B2846394600F049
:1032F0009DFC4246039B00F01FFA914A7A4402EB80
:10330000CB03D3E9002300F017FA05460791019893
:1033100000F026FC0C9003912A46079B0299009826
:1033200000F00AFA874A7A4402EBCB03D3E9002380
:103330009346019300F000FA039B0C9A00F0FCF90D
:10334000002788463846039B0C9A00F095FE5A46A3
:10335000019B00F091FE029B009A00F08DFE2A4630
:10336000079B00F097FD02460020069005986C4DE3
:10337000AAF10103184301D1734D069000200B46BA
:1033800004903046214600F051FC82468B4623468D
:1033900030461946049A00F06FFE3A46434600F064
:1033A00045FC52465B4600F0C7F906468A463A4657
:1033B00043462146049800F039FC04460F46324645
:1033C000534600F0B9F9614A8B46914221DBABEBE1
:1033D000020353EA000210D122463B4600F04CFEA5
:1033E000804603915A4A5B4B3046514600F0A4F99F
:1033F0004246039B00F018FD27D20220FDF718F883
:10340000FFF786F90A46294614B062F31E01BDE8AB
:10341000F08D514B2BF000429A4216D34F4A0BEBE2
:10342000020353EA000208D122463B4600F024FE84
:103430003246534600F0F8FC07D80220FCF7F8FFAC
:10344000FFF76EF90A462946DEE72BF000404449B3
:10345000444A01EB20514FF00008824223DA481C15
:103460004FF4801121FA00F058443F4AC0F30A514A
:103470007A443E4BA1F2FF31CB4020EA0303C0F374
:10348000130040F4801CC1F1140012682CFA00F8FB
:10349000BBF1000FB8BFC8F100082046394600F064
:1034A000EBFD04460F4622463B463046514600F0AF
:1034B00043F94FF0000B5A462D4B5846039100F04C
:1034C000B5FB00910A902B4A2B4B5846039900F00C
:1034D000ADFB0491029022463B465846039900F00A
:1034E000CBFD3246534600F0D5FC244A244B00F075
:1034F0009DFB049B029A00F01FF907468A46009B39
:103500000A9A00F019F904460E46009B0A9A00F048
:10351000B3FD3A46534600F0BDFC33E0021800000C
:103520000000F03F40180000701700000000084045
:1035300009C7EE3FFD033ADCF5015B14E02F3EBE08
:10354000481600000E1600000000F0BF000090407A
:10355000FE822B654715973C00CC904000346F3FAE
:1035600001FCFFFF0000E03F3C150000FFFF0F00E3
:10357000432EE63F396CA80C615C20BEEF39FAFEA1
:10358000422EE63F0746224633460F911046194623
:1035900000F04CFB834602462E488A460B46052126
:1035A0007844FFF74FF85A46534600F03FFB224657
:1035B000334600F06FFC82468B463A462046314641
:1035C0000F9B00F033FB3A460F9B00F0B5F80F4617
:1035D0000A9000224FF080435046594600F04CFDBF
:1035E0000391009052465B462046314600F01EFB98
:1035F000039B009A00F05CF93B460A9A00F03CFD00
:103600002246334600F038FD0022134B00F042FC06
:103610000E46044601EB08510815002810DC42460E
:103620002046314601F037F9FEF7F8FF042808BFBD
:10363000FFF776F842462046314601F02CF9044661
:1036400006980B4614B022462946BDE8F04D00F01E
:10365000EDBA0000E41300000000F03F2DE9F04156
:1036600006460F4600F022FC04000D4618BF01205C
:10367000284320F00040C0F17F6000F1E040C00F1F
:103680000ED0301C18BF0120384320F00040C0F19C
:103690007F6000F1E040C00F04BF0120FCF7C8FECE
:1036A00020462946BDE8F08110B500290AD00878E7
:1036B000002807D005487844FDF780FA002801D09B
:1036C000002010BD0248784410BD00001215000013
:1036D0000A15000021F00042A2F16052B2F5801FED
:1036E00001F0004328BFD2F17F6C0BD95FEA001CC8
:1036F00043EAC20242EB507018BF704728BF20F067
:1037000001007047B2F5801FBCBF184670474FEAF2
:10371000410C1CF5001F02D2084601F00EB870B52E
:1037200000F02EFB00000089FFF7F6BF4FF00040CD
:10373000A0F580007047000010B591EA030F48BF64
:1037400083F0004300F1A084841A71EB030C05D2CE
:10375000121943EB0C03001B61EB0C01DFF824E1B1
:103760004FEA1154A4EB135C1EEA430F18BF9EEA04
:10377000445F73D023EA0E03DCF1200E21EA0451EA
:1037800043F4801332D322FA0CFE10EB0E0023FA1E
:103790000CFE41EB0E01CCF1200E03FA0EFE10EBF5
:1037A0000E0051F10001B1F5801FCCF1200E32D294
:1037B00001EB045112FA0EF2BDE8104058BF7047F9
:1037C000401C38BF5FEA420218BF7047002814BF90
:1037D00020F0010041F100014FEA410313F5001F01
:1037E00038BF7047A1F1C04100F018BB012A43EB7C
:1037F0000302ACF1200CDCF11F0E32BF4FF0000EC3
:1038000023FA0CF310EB030041EB0451B4EB115F0E
:10381000D0D0A1EB045101F5801149085FEA3000D6
:1038200001EB04510ED350F1000038BF12FA0EFE26
:1038300008D1BDE81040C9E7401C38BF5FEA42022A
:10384000CAD1C3E7BDE810404FEA410313F5001F9A
:1038500038BF7047A1F1C04100F0E0BA9EEA445F72
:1038600008D011EA5E0FBDE8104004BF01F000412E
:1038700000207047BDE8104070B500F081FA00BF2D
:1038800064FBBE3E0000E0FF02494FF0000000F084
:10389000D0BF00BF0000F87F491058BFC1F14041C0
:1038A0005B1058BFC3F140438B42EFF30080704779
:1038B0002DE9C04130B4DFF8A0C23CEA111418BFB2
:1038C0003CEA131400F0EC8081EA03051CEA1114B1
:1038D00044EAD57418BF1CEA131500F0C780A4EBA6
:1038E00005044FF0004545EAC12145EAC32341EAFA
:1038F000505143EA525304F17F74994204F5003465
:103900004FEAC0204FEAC22208BF904200F09C80DC
:103910004FEA13650FF24016765D4FEA134506FB3A
:1039200005F7C7F1807706FB07F74FEAD737A7FB04
:1039300003687642C8F58038A7FB06CE38BFA8F1E9
:10394000010807FB08E64FF0000EA6FB028CE6FB21
:1039500003CEDCF1000CCEF1004E38BFAEF1010E0B
:10396000A6FB0C584FF000074FF00005E6FB0E8752
:10397000A1FB08C6A0FB07CE16EB0E0645F100051D
:10398000E1FB076515F1E04E7EBFA4F580345FEAE8
:1039900046066D4116F1800745F100054FEA1727ED
:1039A0004FEA066647EA0567A6F1DE46B6F1805F94
:1039B0004FEA15251FD9384624F0010C05EBC471D8
:1039C000BCF1FE6F01EB0C1102D8F0BCBDE8008128
:1039D00024425CBF01F5801E9EEAC47F02D4F0BC85
:1039E000BDE80081244238D4F0BCA1F1C041BDE85B
:1039F000004100F013BA4FEAD22242EA43524FEAA2
:103A0000D323A7FB02864FEAD02040EA415007FBB0
:103A100003661EEA0E0F4FEAD12105FB026658BF6E
:103A2000A6EB0056B6EB00564FEA520E4EEAC37EA6
:103A300018EB0E0E56EB530EBDD518EB02085E4187
:103A40007F1C55F10005B6E74FF480154FF00007D5
:103A50004FF000064FF00008ADE7F0BC4FF000005B
:103A600001F1C04101F00041BDE8008111EA0C1FE5
:103A70000CEA131500D00CE013EA0C1F00F02580AF
:103A80004FF00000F0BC81EA030101F00041BDE805
:103A90000081F0BCBDE8004181EA030100F0BEB93D
:103AA000F0BCBDE8004170B500F06AF9097EFC3E4B
:103AB00000F007B881EA03014FF0000001F0004177
:103AC000704781EA030100F0A9B9F0BCBDE80041EC
:103AD0004FF0000021497047FFFDFBF9F7F5F4F2C4
:103AE000F0EEEDEBE9E8E6E4E3E1E0DEDDDBDAD899
:103AF000D7D5D4D3D1D0CFCDCCCBCAC8C7C6C5C4F7
:103B0000C2C1C0BFBEBDBCBBBAB9B8B7B6B5B4B30D
:103B1000B2B1B0AFAEADACABAAA9A8A8A7A6A5A4F8
:103B2000A3A3A2A1A09F9F9E9D9C9C9B9A999998BC
:103B30009797969595949393929191908F8F8E8E5F
:103B40008D8C8C8B8B8A89898888878786858584EC
:103B500084838382828181800000FF070000F87FD8
:103B600010F0004248BF4042B0FA80F310FA03F16F
:103B70000AD0C3F11D0303F580634FEA415002EB05
:103B8000035202EBD12170474FF000007047B0FAAA
:103B900080F310FA03F10AD0C3F11D0303F580632B
:103BA0004FEA41504FEA035202EBD12170474FF0E8
:103BB0000000704751EA030C17D41CF5801F58BF52
:103BC000BCF5801F00F10680994218BF704708BFFE
:103BD0009042704707D711F5801F58BF13F5801F1B
:103BE00019D499427047894270471CF5801F08D547
:103BF000BCF5801FF7D58B4218BF704708BF8242C3
:103C000070474FF4001C1CEB410F38BF1CEB430FF7
:103C100001D28B42704770B500F0B2F8922449008F
:103C20004FF000514FF08053FFF736BEDFF848C128
:103C300070B51CEA111E1EBF1CEA13159EEA0C0F7C
:103C400095EA0C0F00F06F8081EA030423EA4C131D
:103C50004EEAD47E21EA4C1141F4801143F48013E2
:103C6000AE44A1FB024CA0FB0365AEF17F7E36198A
:103C700055EB0C05A1FB034C4CF10003A0FB021C0F
:103C800016EB0C06654153F10003094218BF46F0DC
:103C9000010613F4007F0BD14FEA03314FEA0530E0
:103CA000340341EA155140EA16506FF003020AE06E
:103CB0004FEAC3214FEAC520F40241EA555140EAD8
:103CC00056506FF0020202EB2E4201EB025585EADC
:103CD000CE710AD05FEA440C18BF24F0004450F1C2
:103CE000000041F1000120EAD47040F2FE7C624500
:103CF00000D270BDA84214BF4FF080444FF0404442
:103D0000002E08BF0024BEF1806FA8BFA1F1C04102
:103D1000BDE8704080F282804FF0000001F1C041A8
:103D200001F0004170479EEA0C0F0CEA131518BF12
:103D300095EA0C0F06D04FF0000081EA030E0EF05A
:103D4000004170BD00F01CF88900013E00F007B88A
:103D500000F009B84FEA430C5FEA5C5C08D081EAE6
:103D6000030100F05BB84FEA410C5FEA5C5CF6D1FE
:103D70004FF00000014970470000FF070000F87F86
:103D80000EF1020E2EF0030E5EF8046B364205D4DF
:103D9000012A43EB030515F5001F12D8012841EB5A
:103DA000010C1CF5001F0CD80ED14FEAD17C15F583
:103DB000001F0CEB4C0C0CF1020C08BF4CEBD37C3D
:103DC00004E04FF0080C01E04FEAD37C0CEB4C050B
:103DD00026FA05F606F00706B6F1040C06D20EEB3D
:103DE000860CBDE870404CF0010C6047DFE80CF039
:103DF000090B02024FF000414FF00000A1F5002135
:103E000070BD19461046012851EB010418BFD4F5C6
:103E1000001484BF002001F0004170BD0808A0F527
:103E200000114FEA3101704753EA010C17D41CF519
:103E3000801F58BFBCF5801F00F106808B4218BF61
:103E4000704708BF8242704707D713F5801F58BFDD
:103E500011F5801F19D48B4270479B4270471CF5A7
:103E6000801F08D5BCF5801FF7D5994218BF704751
:103E700008BF904270474FF4001C1CEB430F38BF43
:103E80001CEB410F01D2994270470FB40CBC03BC2C
:103E9000FFF7C1BE91EA030F10B581F000413FF575
:103EA00053AC83F0004300F0EFB800002DE9F0417F
:103EB00001F5801CBCF5001FC0F2C3804FEA115C05
:103EC00021EA0C510CF1FD0C41F480115FEA5C0C0D
:103ED0000CF5C07C01D3400049413DA4890241EA70
:103EE000905187028E0E0A0CA45D04FB04F602FBBF
:103EF00006F6C6F14046A4FB0662F60D46EA4226E7
:103F000006FB06F4A4FB01235242C3F1404338BF31
:103F10005B1EA6FB02420024E6FB0324D20B42EA0E
:103F20004446A6FB0623A1FB02E2A3FB07E4A41878
:103F30004FF0000252F10002E3FB01426442C2F181
:103F4000404E38BFAEF1010EA6FB04234FF0000235
:103F5000E6FB0E32A2FB03464FF00004B61954F103
:103F60000004E2FB0264A1FB06E6A4FB07E816EBF3
:103F700008064FF0000858F10008E4FB016876429B
:103F8000C8F1405838BFA8F10108A2FB06E4A3FB22
:103F900008E52D194FF0000454F10004E2FB085429
:103FA000A1FB05E6A7FB04E818EB06084FF00006A6
:103FB00056F10006E1FB048618F1200556F10006D3
:103FC000A809A8F11B08B10908F03F08B8F10A0FC9
:103FD00040EA86601CD901EB0C51BDE8F08100BFBE
:103FE000FCF5EEE8E2DDD8D3CFCBC7C3C0BDB9B690
:103FF000B4B1AEACA9A7A5A3A19F9D9B9A98969595
:104000009392908F8D8C8B8988878685848382811B
:10401000A0FB006800FB01F208EB4208B8EB872820
:1040200007D5341858EB0104D5D5401C51F10001D7
:10403000D1E7341A78EB0104CDD4401E71F10001B0
:10404000C9E75FEA4C0C5FEA9C5C0DD105D34FF0E9
:10405000000001F00041BDE8F081BDE8F04170B51D
:10406000FFF78EFE6DDBFFBEBDE8F0414FF00000B4
:10407000004970470000F87F10B591EA030F48BF70
:1040800083F000433FF560AB841A71EB030C07D259
:1040900012198CF0004C43EB0C03001B61EB0C017C
:1040A000DFF8A4E14FEA1154A4EB135C1EEA430FBE
:1040B00018BF9EEA445F00F0B08023EA6E035242CC
:1040C00021EA0451C3EB6E0338BF5B1EDCF1200E06
:1040D00025D322FA0CFE10EB0E0043FA0CFE41EB46
:1040E0000E01CCF1200E03FA0EFE10EB0E0051F182
:1040F0000001CCF1200E29D412FA0EF201EB04518A
:10410000BDE8104058BF7047401C1CBFB2F1004FC3
:10411000704700280CBF491C20F00100704712EBCB
:10412000020E43EB030218BF4FF0010E4EEA4202AB
:10413000ACF1200CDCF11E0E54D943FA0CFE10EB4E
:104140000E0051F1FF31CCF11E0ED5D50EF1010E4E
:1041500012FA0EFE404141EB010101EB445C5FEAC3
:104160005C5C10D910EBDE7001EB045138BFBEF17E
:10417000004FBDE8104018BF704700280CBF491C15
:1041800020F00100704730D24FEAD42C11F5001115
:1041900024F400641BD0B1FA81F20B3AA41AA41ED5
:1041A000D2F12003914030FA03F31943904001EB20
:1041B000CC71002C01EB0451BDE81040A8BF704742
:1041C00001F1C0414FF0000001F000417047B0FA2A
:1041D00080F310FA03F100D110BDE41A173C480532
:1041E000C90AE4E701EB045110BD491001EB045189
:1041F000BDE810404FEA300002E04FF00001704788
:104200004A0008BF0042F8D0B2F5001F28BF70472F
:1042100001F000414FF0000070479EEA445F07D074
:1042200011EA5E0FBDE8104004BF00210020704776
:10423000BDE8104070B5FFF7A3FD00BF40DFF63EBC
:1042400083F00041104670470000E0FF43004FEA52
:10425000D30C4FEA3C0C43401FBF40070CF16051A8
:1042600013F0FE4F70471CF0006F03D100200CF0DC
:10427000004170470CF0004343EA507010B540EA2B
:10428000CC0000F014FA00BF000000924FEA0001D9
:10429000FFF7C4BD4FF000414FF00000A1F5002131
:1042A0007047000090EA010F48BF81F0004100F123
:1042B0005082421A3CBF801A89184FEAD0524FF000
:1042C0007F4C1CEA410FA2EBD15318BF9CEA026F4E
:1042D00000F03B804FF0004C4CEA00204CEA0121FA
:1042E00021FA03FC10EB0C0C1ED202F1FF325FEA44
:1042F0001C2040EBC25038BF70471CF07F0F4FEAC4
:10430000400C18BFBCF17F4F38BF7047C3F120038A
:10431000994008BF20F00100BCF17F4F38BF7047C3
:10432000A0F1C04000F009BA4FEA3C00000A40EB9F
:10433000C25028BF1CF0FF0F4FEA400CE6D018BF58
:10434000BCF17F4F38BF7047EAE79CEA026F05D0A7
:1043500010EA5C0F08BF00F00040704710B500F095
:10436000A6F900BF64FBBE3E401058BFC0F14040FC
:10437000491058BFC1F140418142EFF300807047BE
:104380004FF47F0C1CEAD0121EBF1CEAD11392EA34
:104390000C0F93EA0C0F00F0858090EA010F48BFE4
:1043A00042F4807240F4000C41F400002CF07F4194
:1043B00020F07F4000B58142A2EB03020FF2081CFF
:1043C000ACEB504EC0F100009EF800E04FEA4E0EFC
:1043D00000FB0EFC38BF49004FEA2C1C02F5FA0224
:1043E0000CFB0EF34FEACE1E4FEA112C4FEAC1210F
:1043F0000EEB635E42EB22420EFB0CFC4FEA1C53B9
:1044000000FB03114FEA112C4FEA01310EFB0CFCAB
:104410004FEADC4C00FB0C11C14228BF09184CEBE1
:1044200003335DF804EB10EB410143EBC250B2F5EE
:104430007C0F38BF704729D512F0F00F1CBF00F178
:10444000C04000F0004070470081828384858687E9
:1044500088898B8C8D8E8F919293959697999A9C43
:104460009D9FA0A2A3A5A7A8AAACAEB0B2B3B5B7B2
:10447000B9BCBEC0C2C5C7C9CCCED1D4D7D9DCDF88
:10448000E2E6E9ECF0F3F7FAFE0000004FEA400C38
:104490000CF1807CBCF17E4F28BF7047B0F1C0406A
:1044A00000F04BB990EA010F0CEAD11348BF42F477
:1044B0008072624538BF634507D213F47F0F16D070
:1044C00080EA010000F00040704710B500F0EFF8FE
:1044D000097EFC3E00F005B880EA010000F00040D3
:1044E000704780EA010000F0004000F026B912F4A5
:1044F0007F0F04BF0248704780EA010000F01DB939
:104500000000C07F50EA010C00F113801CF5000F81
:1045100058BFBCF5000F01D48842704707D710F58B
:10452000000F58BF11F5000F15D48842704789421B
:1045300070471CF5000F04D5BCF5000FF7D581427C
:1045400070474FF0807C1CEB400F38BF1CEB410FD5
:1045500001D28142704710B500F0A9F892244900B9
:104560004FF000504FF08051FFF7FEBEC10DD1F16A
:104570009E0206DB4FEA002343F0004323FA02F0D9
:104580007047004207D54FEA4001B1F1FE4F02D219
:104590004FF00000704710B500F089F84992248070
:1045A000002070476FEA2000704700004FF47F0C36
:1045B0001CEAD0121EBF1CEAD11392EA0C0F93EA38
:1045C0000C0F00F0478090EA010F48BF42F4807260
:1045D0004FF0004C4CEA00204CEA012102EB0302B0
:1045E000A0FB0113A2F50002002918BF43F001034C
:1045F0005B0028BF4FEA330342EB22425FEA132CF1
:104600004CEBC2502EBFBCEB436FB2F57C0F704732
:104610004FEA036CBCF1004F08BF20F00100B2F577
:104620007C0F38BF70470BD582F0FF0212F5803F38
:10463000C8BF704700F1C040D8BF00F000407047CD
:1046400000F5000C5FEA4C0C48BF7047B0F1C04069
:1046500000F073B890EA010F0CEAD11348BF42F49E
:104660008072624538BF634504D280EA010000F0E1
:104670000040704710B500F01AF800BF8900013EF5
:1046800000F007B800F009B85FEA410C5FEA1C6C63
:1046900008D080EA010000F050B85FEA400C5FEA01
:1046A0001C6CF6D14FF00040A0F5800070470EF171
:1046B000020E2EF0030E5EF8044B244204D44FEA9F
:1046C0004102B2F17F4F11D84FEA4003B3F17F4F5F
:1046D0000CD80ED14FEAD07CB2F17F4F0CEB4C0CD2
:1046E0000CF1020C08BF4CEBD17C04E04FF0080C3D
:1046F00001E04FEAD17C0CEB4C0324FA03F404F004
:104700000704B4F1040C06D20EEB840CBDE8104093
:104710004CF0010C6047DFE80CF0070802024FF094
:104720000040A0F5800010BD0846420018BFD2F13D
:10473000807288BF00F0004010BDFF2141EAD050D8
:10474000C005704790EA010F48BF81F000413FF576
:10475000B0AD421A04D882F00042A0EB020011442E
:104760004FEAD0524FF07F4C1CEA410FA2EBD153DD
:1047700018BF9CEA026F4AD04FF0004C4CEA002070
:104780004CEA012121FA03FCB0EB0C0C0FD412F01F
:10479000FE0F36D05FEA4C001DD5001240EBC25030
:1047A00038BF70471CF03F0F18BF70470BE0A2F1F5
:1047B00001025FEA1C2040EBC25038BF70471CF07A
:1047C0007F0F18BF7047C3F12003994014BF401EEC
:1047D00020F00100704780084FEA122308BF70479D
:1047E000B0FA80FCA2EB0C02CCF1280C60FA0CF0C1
:1047F00093EA122F04BF00EBC25070474FEAC37018
:104800007047130A5FEADC1008BF7047F6E79CEABE
:10481000026F04D010EA5C0F08BF0020704710B58B
:10482000FFF745FF40DFF63E81F000407047FBF7A1
:1048300035BF0CF00F03092B08BF082000F059808A
:104840000A2B0BD0082B18BF704708BF1CF0400F75
:104850000AD04FF000004FF0000170471CF0400FED
:1048600018BF4FF0004070471CF0100F08D020F028
:10487000704300F07F4242EAD3014FEA4370704731
:1048800000F0604021F07F4242EA000201F07F40E8
:1048900040EA727070474FF0FF0C4CF4E06C1CEA79
:1048A00011531CBF9CEA030C9445C2BFDA4201EBD2
:1048B00002517047002B0DD0BCF1000F0FD0002A21
:1048C00001F00041A4BF41F0E04141F07F614FF0B1
:1048D0000000704701F000414FF00000704750EABF
:1048E00001334FF09B0C18BF4CF0806C7EF4CCAFC2
:1048F00070471CF4801F11D01CF4E02F03D06FEA26
:10490000CC31490070474FF04050EFF3008222F065
:10491000704242EA000282F3008870474FF00000C4
:104920007047000000000000000000000000F03FA1
:10493000000000000000F83F000000000000000040
:104940000000004003B8E23F00000000000000004B
:1049500006D0CF43EBFD4C3E033333333333E33FD9
:10496000FFAB6FDBB66DDB3F4D268F515555D53F05
:1049700001411DA96074D13F65DBC9934A86CD3FD3
:10498000EF4E454A287ECA3F3E5555555555C53FC1
:1049900093BDBE166CC166BF2CDE25AF6A56113FB3
:1049A000F16BD2C541BDBBBED0A4BE726937663EB5
:1049B000000000000000000002400000000000A015
:1049C0000000000005400000000000C800000000DA
:1049D0000C4000000000409C000000001940000056
:1049E0000020BCBE0000000034400000BFC91B8E88
:1049F00000000004B5400000504BCFD06607E2CF66
:104A0000010000006C4100003E8251AADFEEA73495
:104A100001000000D9420000DCB5A0E23A301F9747
:104A2000FFFFFFFFB4450000FD25A0C8E9A3C14F6B
:104A3000FFFFFFFFFF3F00000000008000000000BC
:104A4000FF3F000000000080000000000A2D446FBE
:104A500075626C65206572726F722064657465633F
:104A600074696F6E2E2041206D756C7469706C6571
:104A7000206572726F7220686173206265656E20B6
:104A8000646574656374656420776863696368202E
:104A900063616E206E6F7420626520636F72726551
:104AA000637465642E0000000A2D496E64696361B9
:104AB0007465732077686574686572207468652012
:104AC000636F6E74656E74206F6620746865206312
:104AD0006F6E66696775726174696F6E2072656763
:104AE00069737465727320657175616C7320746885
:104AF0006520454550524F4D000000000A2D496E7B
:104B00006469636174657320616E206F70656E20E7
:104B100073656E736F722061742074656D70657259
:104B20006174757265206D6561737572656D656E12
:104B300074A3ACD5FDCFD4CABEB2E2C1BFCEC2B65B
:104B4000C8B5C4B4ABB8D0C6F7BFAAC2B70000009E
:104B50000A2D496E6469636174657320616E206F0C
:104B6000766572666C6F77206F6620746865203199
:104B7000342062697420707265636F756E7465723B
:104B800020696E204D522032A3ACB1EDCABE313443
:104B9000CEBB505245434F554E544552B5C44D526D
:104BA00032D2E7B3F6000000E44B0008000000201A
:104BB000A40000006C010008884C0008A40000203C
:104BC0002C070000880100081C00000043000000C2
:104BD000F8FFFFFF0C0000000E0000000F000000B7
:104BE0002E00000000A24A040000000000000000A7
:104BF000010203040607080900000000000000008D
:104C00000000000000000102030401020304060783
:104C1000080902040608000000000000000000006F
:104C20000000803F0000803F0000803F0000000047
:104C30000000000000000000000000000000000074
:104C40000000000000000000000000000000000064
:104C500000007A443211803B7F051BB50000000044
:104C6000000000000000803F7050010203040506B0
:104C7000000B002000000000000000000000000009
:084C800000000000010000002B
:04000005080001ED01
:00000001FF
