:020000040800F2
:1000000008760024AD020008E1800008E97C0008C1
:10001000C980000839080008019D000800000000A0
:1000200000000000000000000000000069860008D9
:10003000F10D00080000000069810008D186000869
:10004000C7020008C7020008C7020008C70200086C
:10005000C7020008C7020008C7020008C70200085C
:10006000C7020008C7020008C702000841080008CC
:1000700051080008C7020008C7020008C7020008AC
:10008000C7020008C7020008C7020008C70200082C
:10009000C7020008C7020008C7020008F90D0008DF
:1000A000C7020008C7020008C7020008C70200080C
:1000B000C7020008C7020008C7020008C7020008FC
:1000C000C7020008C7020008C7020008C7020008EC
:1000D000C7020008F19C0008C7020008C702000818
:1000E000C7020008C702000800000000C70200089D
:1000F000C7020008C7020008C7020008C7020008BC
:10010000C7020008C7020008C7020008C7020008AB
:10011000C7020008C7020008C7020008C70200089B
:10012000C7020008C7020008C7020008C70200088B
:10013000C7020008C7020008C7020008C70200087B
:1001400000000000000000000000000000000000AF
:10015000C7020008C7020008C7020008C70200085B
:10016000C7020008C7020008C7020008C70200084B
:10017000C7020008C7020008C7020008000000000C
:10018000C7020008C7020008C7020008C70200082B
:10019000C7020008C7020008C7020008C70200081B
:1001A000C7020008C7020008C7020008C70200080B
:1001B000C7020008C7020008C7020008C7020008FB
:1001C000C7020008C7020008C7020008C7020008EB
:1001D000C7020008C7020008C7020008C7020008DB
:1001E000C7020008C7020008C7020008C7020008CB
:1001F000C7020008C7020008C7020008C7020008BB
:10020000C7020008C7020008C7020008C7020008AA
:10021000C7020008C7020008C7020008C70200089A
:10022000C7020008C7020008C7020008000000005B
:10023000C7020008C702000800000000C70200084B
:10024000C7020008C7020008C7020008C70200086A
:10025000C7020008C7020008C7020008C70200085A
:10026000C7020008C7020008C7020008C70200084A
:10027000C7020008C7020008C7020008000000000B
:10028000C7020008C7020008C702000800000000FB
:1002900000000000C7020008DFF80CD000F048FAA8
:1002A00000480047E19E0008087600240648804781
:1002B00006480047FEE7FEE7FEE7FEE7FEE7FEE74B
:1002C000FEE7FEE7FEE7FEE7418800089902000826
:1002D0002DE9F05F0546002092469B46884606467B
:1002E000814640241BE0284641464746224600F00E
:1002F00057F853465A46C01A914110D31146184632
:10030000224600F03EF82D1A67EB01084F462246C0
:100310000120002100F035F817EB00094E41201EA6
:10032000A4F10104DFDC484631462A464346BDE8D5
:10033000F09FD2B201E000F8012B491EFBD27047BA
:100340000022F6E710B513460A4604461946FFF7A1
:10035000F0FF204610BD30B50B460146002020229C
:10036000012409E021FA02F59D4205D303FA02F5C2
:10037000491B04FA02F52844151EA2F10102F1DC22
:1003800030BD202A04DB203A00FA02F10020704739
:100390009140C2F1200320FA03F3194390407047C3
:1003A000202A04DB203A21FA02F00021704721FACA
:1003B00002F3D040C2F12002914008431946704731
:1003C0002DE9FE4F804681EA0300C00F0C460090E5
:1003D00021F0004123F00045B8EB0200A94105D20D
:1003E0004046214690461C460B46024623F00040FC
:1003F000104347D0270DC7F30A00C3F30A510290F8
:10040000401A019040286BDAC3F3130040F4801BBC
:100410000098924620B10023D2EB030A63EB0B0B4A
:1004200001985946C0F140025046FFF7AAFF064620
:100430000D4650465946019A00F08CF910EB080021
:100440006141002487EA115284EAE7731A4340D0DD
:10045000009A62B3019A012A4FEA075215DC001B89
:1004600061EB02014FF0004202EA0752CDE900427F
:10047000001C41F5801132462B4600F08CF903B088
:10048000BDE8F08F40462146F9E7001B61EB020111
:10049000001C41F5801300185B412018A2F50017DD
:1004A00047EB030140EAD570B6196D4111E06D08C4
:1004B0004FEA360645EAC0754FEA0752001B61EB6A
:1004C0000201001C41F5801149084FEA3000001973
:1004D000514132462B4603B0BDE8F04F00F04CB915
:1004E0000098012240000023D0EB020263EBE0738E
:1004F000009821464FEAE074B8EB000061EB04017C
:10050000E9E783F000435BE781F0004158E72DE91C
:10051000FE4F81EA030404F0004421F000410094FE
:100520004FF0000B23F0004350EA01045ED052EA82
:1005300003045BD0C3F30A54C1F30A552C44A4F25C
:10054000F3340194A0FB0254C1F3130141F4801170
:10055000C3F3130343F4801301FB024400FB034E77
:10056000840A970A44EA815447EA8357A4FB076840
:1005700002958D0A05FB07854FEA932C04FB0C546A
:100580002705029D4FEA065847EA1637B5EB0805DE
:100590006EEB070C870E920E47EA811742EA831230
:1005A000A7FB0201B6EB0B0164EB00042B0D43EA41
:1005B0000C335E1844EB1C50DA465146E7FB02014F
:1005C000C5F313044FEA0B3343EA14534FEA0432E2
:1005D000019C43EA0603A4F10C040294009CCDE9BB
:1005E00000B400F0D8F803B0BDE8F08F0020014659
:1005F000F9E72DE9F04D81EA030404F0004B21F006
:10060000004514464FF0000A23F0004150EA05026D
:1006100020D054EA01021DD0C5F30A570246C5F3A3
:100620001303C1F31300C1F30A5640F4801543F4D9
:100630008013A7EB0608101BD64608F2FD3873EBB3
:10064000050002D308F1010801E092185B41B8F1FE
:10065000000F03DA00200146BDE8F08D00204FF4C2
:100660008011064684460EE0171B73EB050705D381
:10067000121B63EB050306434CEA010C49084FEAE1
:10068000300092185B4150EA0107EDD152EA0300B5
:1006900012D082EA040083EA0501084305D0101B4A
:1006A000AB4106D20122002306E000224FF00043B6
:1006B00002E06FF0010253101AEB06004CEB0851F8
:1006C00010EB0A0041EB0B01BDE8F04D00F054B80F
:1006D000C1F30A52C1F3130140F2FF3341F4801118
:1006E0009A4202DA00200146704740F233439A42B0
:1006F000A2F2334202DC5242FFF752BEFFF741BE84
:1007000030B5041E71F1000404DB4FF00044404298
:1007100064EB0101141E73F1000405DB1C464FF06D
:100720000043524263EB0403994208BF904230BD3C
:10073000064C074D06E0E06840F0010394E807002E
:1007400098471034AC42F6D3FFF7AAFD64A900081D
:1007500084A90008202A06DBCB17203A41FA02F0D0
:1007600043EAE07306E041FA02F3D040C2F120020E
:10077000914008431946704710B5141E73F10004E8
:1007800008DA401C41F1000192185B411A4301D183
:1007900020F0010010BD2DE9F04D92469B4611B1AD
:1007A000B1FA81F202E0B0FA80F220329046FFF70F
:1007B000E8FD04460F4640EA0A0041EA0B015346B1
:1007C0005A46084313D0114653EA010019D0C8F124
:1007D00040025046FFF7E4FD05460E465046594696
:1007E0004246FFF7CEFD084305D0012004E0204635
:1007F0003946BDE8F08D0020054346EAE0762C43FB
:1008000037430A986305E40AA0EB08000022FD0ABA
:1008100044EA47540A3002D500200146E9E70105C1
:1008200010196941DDE9084500196941BDE8F04D3D
:10083000A2E7000000000000FFE7FEE70000000064
:1008400080B540F22C00C2F2004001F02DFB80BDCB
:1008500080B540F2A400C2F2004001F025FB80BD4B
:1008600085B0014604900498006801221023C4F268
:10087000020398420291019200F0A380FFE70498DE
:10088000006801212822C4F202029042019100F086
:100890009880FFE70498006801214022C4F2020218
:1008A0009042019100F08D80FFE7049800680121DB
:1008B0005822C4F202029042019100F08280FFE7C8
:1008C0000498006801217022C4F202029042019152
:1008D00077D0FFE70498006801218822C4F2020261
:1008E000904201916DD0FFE7049800680121A02299
:1008F000C4F202029042019163D0FFE704980068BD
:100900000121B822C4F202029042019159D0FFE7BE
:1009100004980068012140F21042C4F202029042A1
:1009200001914ED0FFE704980068012140F228426F
:10093000C4F202029042019143D0FFE7049800689C
:10094000012140F24042C4F202029042019138D0AB
:10095000FFE704980068012140F25842C4F2020205
:10096000904201912DD0FFE704980068012140F2E8
:100970007042C4F202029042019122D0FFE7049833
:100980000068012140F28842C4F2020290420191C3
:1009900017D0FFE704980068012140F2A042C4F29A
:1009A0000202904201910CD0FFE7049800684FF6D4
:1009B0004831CBF6FD710844B0FA80F0400901904F
:1009C000FFE70198C007002829D0FFE704980078C6
:1009D00010384AF6AB21CAF6AA21A0FB0101090989
:1009E0000391039901F007014AF6FE02C0F60002E6
:1009F000515C049AD16503990429009007D3FFE75D
:100A000004980168042262F30901816506E00498F4
:100A1000016840F2FF3291438165FFE705E00498E9
:100A2000016821F0FF018165FFE70498806D05B042
:100A3000704700000000000087B00146069006984D
:100A40000068049006980068012245F20843C5F644
:100A500002039842039102924ED0FFE70698006885
:100A6000012145F21C42C5F602029042029143D098
:100A7000FFE706980068012145F23042C5F6020200
:100A80009042029138D0FFE706980068012145F2B4
:100A90004442C5F60202904202912DD0FFE706982B
:100AA0000068012145F25842C5F6020290420291C7
:100AB00022D0FFE706980068012145F26C42C5F696
:100AC00002029042029117D0FFE7069800680121C8
:100AD00045F28042C5F60202904202910CD0FFE737
:100AE000069800684AF66C31CAF2FD710844B0FA03
:100AF00080F040090290FFE70298C007002824D048
:100B0000FFE70698007808384CF6CD41CCF6CC418A
:100B1000A0FB010109090591059945F60002C5F6FA
:100B2000020202EB8101069A1166069945F68002DF
:100B3000C5F602024A66059901F01F01012202FA78
:100B400001F1069A9166019037E006980078103816
:100B50004AF6AB21CAF6AA21A0FB010109090591B9
:100B6000049940F2B842C4F20202914200900CD8BB
:100B7000FFE7049840F21041C4F20201884204D316
:100B8000FFE7059808300590FFE7059840F600015B
:100B9000C4F2020101EB800006990866069840F64F
:100BA0008001C4F202014166059800F01F00012196
:100BB00001FA00F006998866FFE707B07047000069
:100BC00084B00146039003980079029002980028AF
:100BD000019100F08C80FFE70298082800F28780DE
:100BE000FFE703980068012145F20842C5F60202BA
:100BF000904200914ED0FFE703980068012145F232
:100C00001C42C5F602029042009143D0FFE70398D0
:100C10000068012145F23042C5F60202904200917F
:100C200038D0FFE703980068012145F24442C5F639
:100C30000202904200912DD0FFE703980068012145
:100C400045F25842C5F602029042009122D0FFE7D9
:100C500003980068012145F26C42C5F602029042F9
:100C6000009117D0FFE703980068012145F2804208
:100C7000C5F60202904200910CD0FFE7039800688D
:100C80004AF66C31CAF2FD710844B0FA80F04009AE
:100C90000090FFE70098C007002810D0FFE70298F7
:100CA00045F6FC01C5F6020101EB80000399C86618
:100CB000039845F64011C5F6020101670FE002985E
:100CC00040F6FC01C4F2020101EB80000399C86602
:100CD000039840F64011C4F202010167FFE7029851
:100CE0000138012101FA00F003994867FFE704B0D9
:100CF000704700000000000086B00146059000200B
:100D00008DF81300059880690028039123D1FFE72F
:100D10000598806A032802901BD80299DFE801F049
:100D2000020D02180598C06AC001002804D5FFE72B
:100D300001208DF81300FFE70CE00598C06AB0F1C0
:100D4000C07F04D1FFE701208DF81300FFE701E029
:100D500000E0FFE747E005988069B0F5005F26D125
:100D6000FFE70598806A032801901ED80199DFE803
:100D700001F00206021101208DF8130016E005981B
:100D8000C06AC001002804D5FFE701208DF81300D8
:100D9000FFE70BE00598C06AB0F1C07F04D1FFE720
:100DA00001208DF81300FFE700E0FFE71AE0059847
:100DB000806A0328009004D3FFE70098032804D03A
:100DC0000EE001208DF813000BE00598C06AC00109
:100DD000002804D5FFE701208DF81300FFE700E0AD
:100DE000FFE7FFE7FFE79DF8130006B0704700003C
:100DF000704700000000000080B584B0202002F0A1
:100E00006FFE07F001FF08F0EBFF8DED020B9DED8B
:100E1000020B53EC102B4AF65610C0F6000009F0F6
:100E2000EDF8019007F074FE04B080BD00000000F2
:100E300081B0EFF3108072B60090FFE7FEE700008C
:100E400080B58EB001460C90079103F09DF8089094
:100E50000C98002805D1FFE701208DF8370000F03D
:100E6000B8BC0C9890F8350002280ED0FFE70C981B
:100E700080214165FFE70C98002180F83410FFE7DE
:100E800001208DF8370000F0A4BC0C980068012107
:100E90001022C4F202029042069100F0A380FFE704
:100EA0000C98006801212822C4F2020290420691A7
:100EB00000F09880FFE70C98006801214022C4F2FE
:100EC00002029042069100F08D80FFE70C980068C6
:100ED00001215822C4F202029042069100F0828061
:100EE000FFE70C98006801217022C4F202029042D0
:100EF000069177D0FFE70C98006801218822C4F2A0
:100F00000202904206916DD0FFE70C980068012123
:100F1000A022C4F202029042069163D0FFE70C982F
:100F200000680121B822C4F202029042069159D011
:100F3000FFE70C980068012140F21042C4F202025F
:100F4000904206914ED0FFE70C980068012140F2D4
:100F50002842C4F202029042069143D0FFE70C9867
:100F60000068012140F24042C4F202029042069120
:100F700038D0FFE70C980068012140F25842C4F2D3
:100F80000202904206912DD0FFE70C9800680121E3
:100F900040F27042C4F202029042069122D0FFE772
:100FA0000C980068012140F28842C4F2020290428B
:100FB000069117D0FFE70C980068012140F2A0428B
:100FC000C4F20202904206910CD0FFE70C98006830
:100FD0004FF64831CBF6FD710844B0FA80F0400975
:100FE0000690FFE70698C007002810D0FFE70C988E
:100FF0000068016821F01E0101600C9800684169D9
:1010000021F0800141610C980068099009E00C987A
:101010000068016821F00E0101600C9800680990D9
:10102000FFE70C98006801211022C4F202029042EE
:10103000059100F00381FFE70C9800680121282248
:10104000C4F202029042059100F0F880FFE70C988C
:10105000006801214022C4F202029042059100F092
:10106000ED80FFE70C98006801215822C4F20202CB
:101070009042059100F0E280FFE70C9800680121A2
:101080007022C4F202029042059100F0D780FFE77F
:101090000C98006801218822C4F202029042059156
:1010A00000F0CC80FFE70C9800680121A022C4F278
:1010B00002029042059100F0C180FFE70C980068A1
:1010C0000121B822C4F202029042059100F0B680DC
:1010D000FFE70C980068012140F21042C4F20202BE
:1010E0009042059100F0AA80FFE70C98006801216A
:1010F00040F22842C4F202029042059100F09E8024
:10110000FFE70C980068012140F24042C4F202025D
:101110009042059100F09280FFE70C980068012151
:1011200040F25842C4F202029042059100F08680DB
:10113000FFE70C980068012140F27042C4F20202FD
:10114000904205917AD0FFE70C980068012140F2A7
:101150008842C4F20202904205916FD0FFE70C98DA
:101160000068012140F2A042C4F2020290420591BF
:1011700064D0FFE70C980068012140F2B842C4F245
:1011800002029042059159D0FFE70C9800680121B6
:1011900045F20842C5F60202904205914ED0FFE7A3
:1011A0000C980068012145F21C42C5F602029042EB
:1011B000059143D0FFE70C980068012145F23042C9
:1011C000C5F602029042059138D0FFE70C980068FE
:1011D000012145F24442C5F60202904205912DD00C
:1011E000FFE70C980068012145F25842C5F602025B
:1011F0009042059122D0FFE70C980068012145F24A
:101200006C42C5F602029042059117D0FFE70C9898
:101210000068012145F28042C5F602029042059124
:101220000CD0FFE70C9800684AF66C31CAF2FD71E9
:101230000844B0FA80F040090590FFE70598C00720
:10124000002807D0FFE70C98006E016821F4807138
:101250000160FFE70C9800681021C4F20201884287
:1012600000F08180FFE70C9800682821C4F2020199
:10127000884278D0FFE70C9800684021C4F2020150
:10128000884270D0FFE70C9800685821C4F2020130
:10129000884268D0FFE70C9800687021C4F2020110
:1012A000884260D0FFE70C9800688821C4F20201F0
:1012B000884258D0FFE70C980068A021C4F20201D0
:1012C000884250D0FFE70C980068B821C4F20201B0
:1012D000884248D0FFE70C98006840F21041C4F201
:1012E000020188423FD0FFE70C98006840F2284195
:1012F000C4F20201884236D0FFE70C98006840F241
:101300004041C4F2020188422DD0FFE70C980068EA
:1013100040F25841C4F20201884224D0FFE70C9801
:10132000006840F27041C4F2020188421BD0FFE71E
:101330000C98006840F28841C4F20201884212D041
:10134000FFE70C98006840F2A041C4F20201884215
:1013500009D0FFE70C98006840F2B841C4F20201DE
:10136000884209D1FFE70C980068016821F001016B
:101370000A460160049208E00C980068016821F0B8
:1013800001010A4601600392FFE7FFE70998006840
:10139000C00700281BD0FFE702F0F6FDDDF820E0D3
:1013A000A0EB0E00062811D3FFE70C982021416521
:1013B0000C98032180F83510FFE70C98002180F885
:1013C0003410FFE701208DF8370002E2DEE70C98C9
:1013D000006801211022C4F202029042029100F042
:1013E000A380FFE70C98006801212822C4F20202C2
:1013F0009042029100F09880FFE70C98006801216C
:101400004022C4F202029042029100F08D80FFE778
:101410000C98006801215822C4F202029042029105
:1014200000F08280FFE70C98006801217022C4F26E
:1014300002029042029177D0FFE70C9800680121E8
:101440008822C4F20202904202916DD0FFE70C980C
:1014500000680121A022C4F202029042029163D0EE
:10146000FFE70C9800680121B822C4F20202904202
:10147000029159D0FFE70C980068012140F2104218
:10148000C4F20202904202914ED0FFE70C9800682D
:10149000012140F22842C4F202029042029143D05C
:1014A000FFE70C980068012140F24042C4F20202BA
:1014B0009042029138D0FFE70C980068012140F279
:1014C0005842C4F20202904202912DD0FFE70C98DC
:1014D0000068012140F27042C4F20202904202917F
:1014E00022D0FFE70C980068012140F28842C4F244
:1014F00002029042029117D0FFE70C980068012188
:1015000040F2A042C4F20202904202910CD0FFE7E6
:101510000C9800684FF64831CBF6FD710844B0FADC
:1015200080F040090290FFE70298C00700280DD024
:10153000FFE70C98806D0B900C98C06D00F01F00B9
:101540003F2101FA00F00B9988600CE00C98806D47
:101550000A900C98C06D00F01F00012101FA00F004
:101560000A994860FFE70C98006801211022C4F234
:1015700002029042019100F00381FFE70C9800689D
:1015800001212822C4F202029042019100F0F88069
:10159000FFE70C98006801214022C4F20202904249
:1015A000019100F0ED80FFE70C98006801215822BE
:1015B000C4F202029042019100F0E280FFE70C9831
:1015C000006801217022C4F202029042019100F0F1
:1015D000D780FFE70C98006801218822C4F202023C
:1015E0009042019100F0CC80FFE70C980068012147
:1015F000A022C4F202029042019100F0C180FFE7F4
:101600000C9800680121B822C4F2020290420191B4
:1016100000F0B680FFE70C980068012140F210420C
:10162000C4F202029042019100F0AA80FFE70C98F8
:101630000068012140F22842C4F202029042019166
:1016400000F09E80FFE70C980068012140F24042C4
:10165000C4F202029042019100F09280FFE70C98E0
:101660000068012140F25842C4F202029042019106
:1016700000F08680FFE70C980068012140F270427C
:10168000C4F20202904201917AD0FFE70C98006800
:10169000012140F28842C4F20202904201916FD0CF
:1016A000FFE70C980068012140F2A042C4F2020258
:1016B0009042019164D0FFE70C980068012140F24C
:1016C000B842C4F202029042019159D0FFE70C984F
:1016D0000068012145F20842C5F6020290420191DC
:1016E0004ED0FFE70C980068012145F21C42C5F678
:1016F00002029042019143D0FFE70C98006801215B
:1017000045F23042C5F602029042019138D0FFE71F
:101710000C980068012145F24442C5F6020290424D
:1017200001912DD0FFE70C980068012145F2584245
:10173000C5F602029042019122D0FFE70C980068A2
:10174000012145F26C42C5F602029042019117D088
:10175000FFE70C980068012145F28042C5F60202BD
:10176000904201910CD0FFE70C9800684AF66C316A
:10177000CAF2FD710844B0FA80F040090190FFE719
:101780000198C007002815D0FFE70C98416E806EC5
:1017900048600C98C06E00280BD0FFE70C98C06E14
:1017A000016821F4807101600C98016F406F4860FE
:1017B000FFE7FFE70C98012180F83510FFE70C9850
:1017C000002180F83410FFE7FFE700208DF8370094
:1017D000FFE79DF837000EB080BD0000000000005C
:1017E00080B58AB00146089008980028069104D177
:1017F000FFE701208DF8270052E3089890F83500A4
:10180000022807D0FFE708988021416501208DF864
:10181000270045E30898006801211022C4F2020263
:101820009042059100F0A380FFE70898006801212D
:101830002822C4F202029042059100F09880FFE74E
:101840000898006801214022C4F2020290420591EA
:1018500000F08D80FFE70898006801215822C4F24B
:1018600002029042059100F08280FFE7089800682C
:1018700001217022C4F202029042059177D0FFE765
:101880000898006801218822C4F202029042059162
:101890006DD0FFE7089800680121A022C4F202027F
:1018A0009042059163D0FFE7089800680121B822B3
:1018B000C4F202029042059159D0FFE708980068EF
:1018C000012140F21042C4F20202904205914ED032
:1018D000FFE708980068012140F22842C4F20202A2
:1018E0009042059143D0FFE708980068012140F23B
:1018F0004042C4F202029042059138D0FFE70898B6
:101900000068012140F25842C4F20202904205915F
:101910002DD0FFE708980068012140F27042C4F220
:1019200002029042059122D0FFE708980068012149
:1019300040F28842C4F202029042059117D0FFE7BC
:1019400008980068012140F2A042C4F202029042CD
:1019500005910CD0FFE7089800684FF64831CBF6A8
:10196000FD710844B0FA80F040090590FFE7059842
:10197000C007002800F0A180FFE70898042180F844
:101980003510089800681021C4F20201884200F066
:101990008180FFE7089800682821C4F2020188428C
:1019A00078D0FFE7089800684021C4F2020188421D
:1019B00070D0FFE7089800685821C4F202018842FD
:1019C00068D0FFE7089800687021C4F202018842DD
:1019D00060D0FFE7089800688821C4F202018842BD
:1019E00058D0FFE708980068A021C4F2020188429D
:1019F00050D0FFE708980068B821C4F2020188427D
:101A000048D0FFE70898006840F21041C4F2020194
:101A100088423FD0FFE70898006840F22841C4F2AE
:101A20000201884236D0FFE70898006840F2404142
:101A3000C4F2020188422DD0FFE70898006840F206
:101A40005841C4F20201884224D0FFE70898006898
:101A500040F27041C4F2020188421BD0FFE70898AF
:101A6000006840F28841C4F20201884212D0FFE7C8
:101A70000898006840F2A041C4F20201884209D0EF
:101A8000FFE70898006840F2B841C4F202018842BA
:101A900009D1FFE708980068016821F001010A46B2
:101AA0000160049208E008980068016821F00101D3
:101AB0000A4601600392FFE7EDE1089800680168BB
:101AC00021F00E010160089800681021C4F20201A3
:101AD000884200F08180FFE7089800682821C4F25E
:101AE0000201884278D0FFE7089800684021C4F2DC
:101AF0000201884270D0FFE7089800685821C4F2BC
:101B00000201884268D0FFE7089800687021C4F29B
:101B10000201884260D0FFE7089800688821C4F27B
:101B20000201884258D0FFE708980068A021C4F25B
:101B30000201884250D0FFE708980068B821C4F23B
:101B40000201884248D0FFE70898006840F210413F
:101B5000C4F2020188423FD0FFE70898006840F2D3
:101B60002841C4F20201884236D0FFE70898006895
:101B700040F24041C4F2020188422DD0FFE70898AC
:101B8000006840F25841C4F20201884224D0FFE7C5
:101B90000898006840F27041C4F2020188421BD0EC
:101BA000FFE70898006840F28841C4F202018842C9
:101BB00012D0FFE70898006840F2A041C4F2020189
:101BC000884209D0FFE70898006840F2B841C4F2A3
:101BD0000201884209D1FFE708980068016821F0F6
:101BE00001010A460160029208E008980068016855
:101BF00021F001010A4601600192FFE708980068A0
:101C000001211022C4F202029042009100F00381EF
:101C1000FFE70898006801212822C4F202029042DE
:101C2000009100F0F880FFE7089800680121402249
:101C3000C4F202029042009100F0ED80FFE70898A4
:101C4000006801215822C4F202029042009100F083
:101C5000E280FFE70898006801217022C4F20202C6
:101C60009042009100F0D780FFE7089800680121BA
:101C70008822C4F202029042009100F0CC80FFE77B
:101C8000089800680121A022C4F20202904200914B
:101C900000F0C180FFE7089800680121B822C4F273
:101CA00002029042009100F0B680FFE708980068B9
:101CB000012140F21042C4F202029042009100F071
:101CC000AA80FFE708980068012140F22842C4F288
:101CD00002029042009100F09E80FFE708980068A1
:101CE000012140F24042C4F202029042009100F011
:101CF0009280FFE708980068012140F25842C4F240
:101D000002029042009100F08680FFE70898006888
:101D1000012140F27042C4F20202904200917AD056
:101D2000FFE708980068012140F28842C4F20202ED
:101D3000904200916FD0FFE708980068012140F2BF
:101D4000A042C4F202029042009164D0FFE70898DA
:101D50000068012140F2B842C4F2020290420091B0
:101D600059D0FFE708980068012145F20842C5F6FE
:101D70000202904200914ED0FFE7089800680121CE
:101D800045F21C42C5F602029042009143D0FFE7A3
:101D900008980068012145F23042C5F602029042DF
:101DA000009138D0FFE708980068012145F24442CD
:101DB000C5F60202904200912DD0FFE70898006816
:101DC000012145F25842C5F602029042009122D00C
:101DD000FFE708980068012145F26C42C5F602024F
:101DE0009042009117D0FFE708980068012145F262
:101DF0008042C5F60202904200910CD0FFE708989D
:101E000000684AF66C31CAF2FD710844B0FA80F0FD
:101E100040090090FFE70098C007002827D0FFE79F
:101E20000898006E016821F4807101600898806D47
:101E300007900898C06D00F01F00012101FA00F022
:101E4000079948600898416E806E48600898C06E97
:101E500000280BD0FFE70898C06E016821F480715C
:101E600001600898016F406F4860FFE7FFE708983E
:101E7000012180F83510FFE70898002180F8341020
:101E8000FFE70898006D002804D0FFE70898016D6F
:101E90008847FFE7FFE7FFE700208DF82700FFE70F
:101EA0009DF827000AB080BD80B59CB001461B900C
:101EB0000020179040F20400C2F20040006848F28F
:101EC000B512C1F64E32A0FB0202920A16921B9A7C
:101ED000926D15921B9A926D1492159A12681A922D
:101EE000149A126819921B9A1268012340F2100C7E
:101EF000C4F2020C624513911290119300F0A3807A
:101F0000FFE71B98006801212822C4F202029042D8
:101F1000119100F09880FFE71B9800680121402292
:101F2000C4F202029042119100F08D80FFE71B98ED
:101F3000006801215822C4F202029042119100F07F
:101F40008280FFE71B98006801217022C4F2020220
:101F50009042119177D0FFE71B98006801218822F9
:101F6000C4F20202904211916DD0FFE71B98006805
:101F70000121A022C4F202029042119163D0FFE736
:101F80001B9800680121B822C4F20202904211910C
:101F900059D0FFE71B980068012140F21042C4F2BB
:101FA0000202904211914ED0FFE71B980068012178
:101FB00040F22842C4F202029042119143D0FFE75E
:101FC0001B980068012140F24042C4F20202904294
:101FD000119138D0FFE71B980068012140F2584268
:101FE000C4F20202904211912DD0FFE71B980068C5
:101FF000012140F27042C4F202029042119122D0BB
:10200000FFE71B980068012140F28842C4F20202F7
:102010009042119117D0FFE71B980068012140F210
:10202000A042C4F20202904211910CD0FFE71B982B
:1020300000684FF64831CBF6FD710844B0FA80F0E5
:1020400040091190FFE71198C007002800F0328581
:10205000FFE71A981B99C96D01F01F01082202FAC7
:1020600001F1084200F0B280FFE71B9800681021E0
:10207000C4F20201884200F08180FFE71B980068EB
:102080002821C4F20201884278D0FFE71B9800683B
:102090004021C4F20201884270D0FFE71B9800681B
:1020A0005821C4F20201884268D0FFE71B980068FB
:1020B0007021C4F20201884260D0FFE71B980068DB
:1020C0008821C4F20201884258D0FFE71B980068BB
:1020D000A021C4F20201884250D0FFE71B9800689B
:1020E000B821C4F20201884248D0FFE71B9800687B
:1020F00040F21041C4F2020188423FD0FFE71B9832
:10210000006840F22841C4F20201884236D0FFE75D
:102110001B98006840F24041C4F2020188422DD071
:10212000FFE71B98006840F25841C4F20201884260
:1021300024D0FFE71B98006840F27041C4F202010E
:1021400088421BD0FFE71B98006840F28841C4F228
:102150000201884212D0FFE71B98006840F2A041BC
:10216000C4F20201884209D0FFE71B98006840F2E0
:10217000B841C4F20201884207D1FFE71B9800680A
:10218000006800F00400109006E01B9800680068EA
:1021900000F008001090FFE71098002815D0FFE726
:1021A0001B980068016821F0040101601B98C06D54
:1021B00000F01F00082101FA00F0159988601B98B3
:1021C000416D41F001014165FFE7FFE71A981B9956
:1021D000C96D01F01F01012202FA01F1084200F06D
:1021E000AC80FFE71B9800681021C4F2020188420E
:1021F00000F08180FFE71B9800682821C4F20201EB
:10220000884278D0FFE71B9800684021C4F20201A1
:10221000884270D0FFE71B9800685821C4F2020181
:10222000884268D0FFE71B9800687021C4F2020161
:10223000884260D0FFE71B9800688821C4F2020141
:10224000884258D0FFE71B980068A021C4F2020121
:10225000884250D0FFE71B980068B821C4F2020101
:10226000884248D0FFE71B98006840F21041C4F252
:10227000020188423FD0FFE71B98006840F22841E6
:10228000C4F20201884236D0FFE71B98006840F292
:102290004041C4F2020188422DD0FFE71B9800683C
:1022A00040F25841C4F20201884224D0FFE71B9853
:1022B000006840F27041C4F2020188421BD0FFE77F
:1022C0001B98006840F28841C4F20201884212D093
:1022D000FFE71B98006840F2A041C4F20201884267
:1022E00009D0FFE71B98006840F2B841C4F2020130
:1022F000884207D1FFE71B980068406900F0800022
:102300000F9006E01B980068006800210E900F9166
:10231000FFE70F9800280FD0FFE71B98C06D00F073
:102320001F00012101FA00F0159988601B98416D8A
:1023300041F002014165FFE7FFE71A981B99C96D5B
:1023400001F01F01042202FA01F1084200F0AC8002
:10235000FFE71B9800681021C4F20201884200F0D8
:102360008180FFE71B9800682821C4F2020188429F
:1023700078D0FFE71B9800684021C4F20201884230
:1023800070D0FFE71B9800685821C4F20201884210
:1023900068D0FFE71B9800687021C4F202018842F0
:1023A00060D0FFE71B9800688821C4F202018842D0
:1023B00058D0FFE71B980068A021C4F202018842B0
:1023C00050D0FFE71B980068B821C4F20201884290
:1023D00048D0FFE71B98006840F21041C4F20201A8
:1023E00088423FD0FFE71B98006840F22841C4F2C2
:1023F0000201884236D0FFE71B98006840F2404156
:10240000C4F2020188422DD0FFE71B98006840F219
:102410005841C4F20201884224D0FFE71B980068AB
:1024200040F27041C4F2020188421BD0FFE71B98C2
:10243000006840F28841C4F20201884212D0FFE7EE
:102440001B98006840F2A041C4F20201884209D002
:10245000FFE71B98006840F2B841C4F202018842CD
:1024600007D1FFE71B980068006800F002000D909C
:1024700006E01B980068006800210C900D91FFE7B2
:102480000D9800280FD0FFE71B98C06D00F01F00CB
:10249000042101FA00F0159988601B98416D41F004
:1024A00004014165FFE7FFE71A981B99C96D01F028
:1024B0001F01102202FA01F1084200F0E280FFE75A
:1024C0001B9800681021C4F20201884200F081804C
:1024D000FFE71B9800682821C4F20201884278D0E7
:1024E000FFE71B9800684021C4F20201884270D0C7
:1024F000FFE71B9800685821C4F20201884268D0A7
:10250000FFE71B9800687021C4F20201884260D086
:10251000FFE71B9800688821C4F20201884258D066
:10252000FFE71B980068A021C4F20201884250D046
:10253000FFE71B980068B821C4F20201884248D026
:10254000FFE71B98006840F21041C4F20201884284
:102550003FD0FFE71B98006840F22841C4F2020117
:10256000884236D0FFE71B98006840F24041C4F231
:10257000020188422DD0FFE71B98006840F25841C5
:10258000C4F20201884224D0FFE71B98006840F2A1
:102590007041C4F2020188421BD0FFE71B9800681B
:1025A00040F28841C4F20201884212D0FFE71B9832
:1025B000006840F2A041C4F20201884209D0FFE75E
:1025C0001B98006840F2B841C4F20201884207D16A
:1025D000FFE71B980068006800F008000B9006E019
:1025E0001B980068006800F004000B90FFE70B9850
:1025F000002845D0FFE71B98C06D00F01F00102198
:1026000001FA00F0159988601B9800680068400383
:1026100000281CD5FFE71B9800680068000300280D
:102620000AD4FFE71B98006C002804D0FFE71B9832
:10263000016C8847FFE709E01B98806C002804D0F4
:10264000FFE71B98816C8847FFE7FFE717E01B98BF
:1026500000680068C005002807D4FFE71B980068E1
:10266000016821F008010160FFE71B98006C002859
:1026700004D0FFE71B98016C8847FFE7FFE7FFE7FF
:10268000FFE71A981B99C96D01F01F01202202FA79
:1026900001F1084200F02E81FFE71B98006810212D
:1026A000C4F20201884200F08180FFE71B980068B5
:1026B0002821C4F20201884278D0FFE71B98006805
:1026C0004021C4F20201884270D0FFE71B980068E5
:1026D0005821C4F20201884268D0FFE71B980068C5
:1026E0007021C4F20201884260D0FFE71B980068A5
:1026F0008821C4F20201884258D0FFE71B98006885
:10270000A021C4F20201884250D0FFE71B98006864
:10271000B821C4F20201884248D0FFE71B98006844
:1027200040F21041C4F2020188423FD0FFE71B98FB
:10273000006840F22841C4F20201884236D0FFE727
:102740001B98006840F24041C4F2020188422DD03B
:10275000FFE71B98006840F25841C4F2020188422A
:1027600024D0FFE71B98006840F27041C4F20201D8
:1027700088421BD0FFE71B98006840F28841C4F2F2
:102780000201884212D0FFE71B98006840F2A04186
:10279000C4F20201884209D0FFE71B98006840F2AA
:1027A000B841C4F20201884207D1FFE71B980068D4
:1027B000006800F010000A9006E01B9800680068AE
:1027C00000F002000A90FFE70A98002800F09180CC
:1027D000FFE71B98C06D00F01F00202101FA00F0F8
:1027E000159988601B9890F8350004283BD1FFE7C5
:1027F0001B980068016821F0160101601B980068B1
:10280000416921F0800141611B98006C002805D1CD
:10281000FFE71B98806C002807D0FFE71B98006833
:10282000016821F008010160FFE71B98C06D00F00E
:102830001F003F2101FA00F0159988601B980121C3
:1028400080F83510FFE71B98002180F83410FFE76F
:102850001B98006D002804D0FFE71B98016D884786
:10286000FFE700F03CBC1B980068006840030028AC
:102870001CD5FFE71B9800680068000300280AD4F5
:10288000FFE71B98406C002804D0FFE71B98416CC1
:102890008847FFE709E01B98C06B002804D0FFE7DA
:1028A0001B98C16B8847FFE7FFE721E01B98006892
:1028B0000068C005002811D4FFE71B980068016874
:1028C00021F0100101601B98012180F83510FFE70D
:1028D0001B98002180F83410FFE7FFE71B98C06BBE
:1028E000002804D0FFE71B98C16B8847FFE7FFE78C
:1028F000FFE7FFE71B98406D002800F0DA80FFE754
:102900001B98406DC007002800F0C980FFE71B98A6
:10291000042180F835101B9800681021C4F20201D0
:10292000884200F08180FFE71B9800682821C4F2EC
:102930000201884278D0FFE71B9800684021C4F26A
:102940000201884270D0FFE71B9800685821C4F24A
:102950000201884268D0FFE71B9800687021C4F22A
:102960000201884260D0FFE71B9800688821C4F20A
:102970000201884258D0FFE71B980068A021C4F2EA
:102980000201884250D0FFE71B980068B821C4F2CA
:102990000201884248D0FFE71B98006840F21041CE
:1029A000C4F2020188423FD0FFE71B98006840F262
:1029B0002841C4F20201884236D0FFE71B98006824
:1029C00040F24041C4F2020188422DD0FFE71B983B
:1029D000006840F25841C4F20201884224D0FFE767
:1029E0001B98006840F27041C4F2020188421BD07B
:1029F000FFE71B98006840F28841C4F20201884258
:102A000012D0FFE71B98006840F2A041C4F2020117
:102A1000884209D0FFE71B98006840F2B841C4F231
:102A20000201884209D1FFE71B980068016821F084
:102A300001010A460160099208E01B9800680168DC
:102A400021F001010A4601600892FFE7FFE71798AD
:102A5000013017901699884201D9FFE707E0FFE798
:102A60001B9800680068C0070028F0D1FFE71B989A
:102A700000680068C007002805D0FFE71B98032105
:102A800080F8351004E01B98012180F83510FFE72D
:102A9000FFE71B98002180F83410FFE7FFE71B9841
:102AA000C06C002804D0FFE71B98C16C8847FFE783
:102AB000FFE714E31B980068012145F20842C5F6C0
:102AC0000202904207914ED0FFE71B980068012157
:102AD00045F21C42C5F602029042079143D0FFE73F
:102AE0001B980068012145F23042C5F6020290426F
:102AF000079138D0FFE71B980068012145F2444256
:102B0000C5F60202904207912DD0FFE71B9800689E
:102B1000012145F25842C5F602029042079122D0A7
:102B2000FFE71B980068012145F26C42C5F60202DE
:102B30009042079117D0FFE71B980068012145F2EA
:102B40008042C5F60202904207910CD0FFE71B9825
:102B500000684AF66C31CAF2FD710844B0FA80F0A0
:102B600040090790FFE70798C007002800F0B582EA
:102B7000FFE71B9800680068189019981B99C96DA9
:102B800001F01F01042202FA01F1084200F0E08086
:102B9000FFE79DF860004007002840F1D980FFE77B
:102BA0001B98C06D00F01F00042101FA00F0149979
:102BB00048609DF86100000600281BD5FFE79DF8DE
:102BC0006200C00700280AD1FFE71B98806C00282C
:102BD00004D0FFE71B98816C8847FFE709E01B984A
:102BE000006C002804D0FFE71B98016C8847FFE7C2
:102BF000FFE7ACE09DF860008006002800F19D80B2
:102C0000FFE71B9800681021C4F20201884200F01F
:102C10008180FFE71B9800682821C4F202018842E6
:102C200078D0FFE71B9800684021C4F20201884277
:102C300070D0FFE71B9800685821C4F20201884257
:102C400068D0FFE71B9800687021C4F20201884237
:102C500060D0FFE71B9800688821C4F20201884217
:102C600058D0FFE71B980068A021C4F202018842F7
:102C700050D0FFE71B980068B821C4F202018842D7
:102C800048D0FFE71B98006840F21041C4F20201EF
:102C900088423FD0FFE71B98006840F22841C4F209
:102CA0000201884236D0FFE71B98006840F240419D
:102CB000C4F2020188422DD0FFE71B98006840F261
:102CC0005841C4F20201884224D0FFE71B980068F3
:102CD00040F27041C4F2020188421BD0FFE71B980A
:102CE000006840F28841C4F20201884212D0FFE736
:102CF0001B98006840F2A041C4F20201884209D04A
:102D0000FFE71B98006840F2B841C4F20201884214
:102D100009D1FFE71B980068016821F008010A4605
:102D20000160069208E01B980068016821F0040128
:102D30000A4601600592FFE7FFE71B98006C002838
:102D400004D0FFE71B98016C8847FFE7FFE7C3E16A
:102D500019981B99C96D01F01F01022202FA01F1B5
:102D6000084200F0EA80FFE79DF860008007002835
:102D700040F1E380FFE71B98C06D00F01F000221C7
:102D800001FA00F0149948609DF8610000060028DF
:102D90001BD5FFE79DF86200C00700280AD1FFE7B6
:102DA0001B98406C002804D0FFE71B98416C8847B3
:102DB000FFE709E01B98C06B002804D0FFE71B98D1
:102DC000C16B8847FFE7FFE7B6E09DF8600080062B
:102DD000002800F1A780FFE71B9800681021C4F2CB
:102DE0000201884200F08180FFE71B9800682821DB
:102DF000C4F20201884278D0FFE71B9800684021A6
:102E0000C4F20201884270D0FFE71B980068582185
:102E1000C4F20201884268D0FFE71B980068702165
:102E2000C4F20201884260D0FFE71B980068882145
:102E3000C4F20201884258D0FFE71B980068A02125
:102E4000C4F20201884250D0FFE71B980068B82105
:102E5000C4F20201884248D0FFE71B98006840F2A4
:102E60001041C4F2020188423FD0FFE71B9800687E
:102E700040F22841C4F20201884236D0FFE71B9895
:102E8000006840F24041C4F2020188422DD0FFE7C1
:102E90001B98006840F25841C4F20201884224D0D5
:102EA000FFE71B98006840F27041C4F202018842BB
:102EB0001BD0FFE71B98006840F28841C4F2020172
:102EC000884212D0FFE71B98006840F2A041C4F28C
:102ED0000201884209D0FFE71B98006840F2B84120
:102EE000C4F20201884209D1FFE71B98006801681B
:102EF00021F014010A460160049208E01B98006862
:102F0000016821F00A010A4601600392FFE71B985D
:102F1000012180F83510FFE71B98002180F834105C
:102F2000FFE7FFE71B98C06B002804D0FFE71B9862
:102F3000C16B8847FFE7FFE7CDE019981B99C96D82
:102F400001F01F01082202FA01F1084200F0C180DD
:102F5000FFE79DF860000007002840F1BA80FFE716
:102F60001B9800681021C4F20201884200F08180A1
:102F7000FFE71B9800682821C4F20201884278D03C
:102F8000FFE71B9800684021C4F20201884270D01C
:102F9000FFE71B9800685821C4F20201884268D0FC
:102FA000FFE71B9800687021C4F20201884260D0DC
:102FB000FFE71B9800688821C4F20201884258D0BC
:102FC000FFE71B980068A021C4F20201884250D09C
:102FD000FFE71B980068B821C4F20201884248D07C
:102FE000FFE71B98006840F21041C4F202018842DA
:102FF0003FD0FFE71B98006840F22841C4F202016D
:10300000884236D0FFE71B98006840F24041C4F286
:10301000020188422DD0FFE71B98006840F258411A
:10302000C4F20201884224D0FFE71B98006840F2F6
:103030007041C4F2020188421BD0FFE71B98006870
:1030400040F28841C4F20201884212D0FFE71B9887
:10305000006840F2A041C4F20201884209D0FFE7B3
:103060001B98006840F2B841C4F20201884209D1BD
:10307000FFE71B980068016821F01C010A46016007
:10308000029208E01B980068016821F00E010A46D0
:1030900001600192FFE71B98C06D00F01F00012145
:1030A00001FA00F0149A50601B9841651B9880F853
:1030B0003510FFE71B98002180F83410FFE71B98BC
:1030C000C06C002804D0FFE71B98C16C8847FFE75D
:1030D00000E0FFE7FFE7FFE700E0FFE7FFE71CB0E6
:1030E00080BD00000000000080B592B00146109045
:1030F0000B9100F049FF0E901098002805D1FFE7D2
:1031000001208DF8470000F0B5BC1098006801213F
:103110001022C4F2020290420A9100F0A380FFE75D
:103120001098006801212822C4F2020290420A91FC
:1031300000F09880FFE71098006801214022C4F257
:10314000020290420A9100F08D80FFE7109800681B
:1031500001215822C4F2020290420A9100F08280BA
:10316000FFE71098006801217022C4F20202904229
:103170000A9177D0FFE71098006801218822C4F2F5
:10318000020290420A916DD0FFE710980068012179
:10319000A022C4F2020290420A9163D0FFE7109885
:1031A00000680121B822C4F2020290420A9159D06B
:1031B000FFE710980068012140F21042C4F20202B9
:1031C00090420A914ED0FFE710980068012140F22A
:1031D0002842C4F2020290420A9143D0FFE71098BD
:1031E0000068012140F24042C4F2020290420A917A
:1031F00038D0FFE710980068012140F25842C4F22D
:10320000020290420A912DD0FFE710980068012138
:1032100040F27042C4F2020290420A9122D0FFE7CB
:1032200010980068012140F28842C4F202029042E4
:103230000A9117D0FFE710980068012140F2A042E0
:10324000C4F2020290420A910CD0FFE71098006885
:103250004FF64831CBF6FD710844B0FA80F04009D2
:103260000A90FFE70A98C007002800F08581FFE771
:103270001098406A002801D0FFE7FFE7109802216C
:1032800080F83510FFE71098002180F83410FFE730
:10329000109800681021C4F20201884200F0818079
:1032A000FFE7109800682821C4F20201884278D014
:1032B000FFE7109800684021C4F20201884270D0F4
:1032C000FFE7109800685821C4F20201884268D0D4
:1032D000FFE7109800687021C4F20201884260D0B4
:1032E000FFE7109800688821C4F20201884258D094
:1032F000FFE710980068A021C4F20201884250D074
:10330000FFE710980068B821C4F20201884248D053
:10331000FFE71098006840F21041C4F202018842B1
:103320003FD0FFE71098006840F22841C4F2020144
:10333000884236D0FFE71098006840F24041C4F25E
:10334000020188422DD0FFE71098006840F25841F2
:10335000C4F20201884224D0FFE71098006840F2CE
:103360007041C4F2020188421BD0FFE71098006848
:1033700040F28841C4F20201884212D0FFE710985F
:10338000006840F2A041C4F20201884209D0FFE780
:103390001098006840F2B841C4F20201884209D195
:1033A000FFE710980068016821F001010A460160FA
:1033B000099208E010980068016821F001010A46AE
:1033C00001600892FFE7FFE7109800680068C007F7
:1033D000002815D0FFE700F0D7FDDDF838E0A0EBBE
:1033E0000E0006280BD3FFE71098202141651098A6
:1033F000032180F8351001208DF847003AE3E3E718
:103400001098006800680F900F9848F23F01CFF6BF
:10341000106108400F9010988168C2680369D0F865
:1034200014C01143194341EA0C0182691143C26976
:103430001143006A08430F9908430F901098406A9F
:10344000042808D1FFE71098C16A006B08430F9960
:1034500008430F90FFE741F20000C5F60040006806
:103460004FF6FF718843B0F1005F41D3FFE710983A
:103470004068292807D3FFE71098406801212F28CA
:1034800007912AD3FFE7109840683F2807D3FFE74A
:10349000109840680121432807911ED3FFE7109838
:1034A0004068472807D3FFE7109840680121492862
:1034B000079112D3FFE71098406800214F2806912A
:1034C00008D3FFE7109840680021532838BF012136
:1034D0000691FFE706980790FFE70798C0070028C6
:1034E00005D0FFE70F9840F480100F90FFE7FFE74B
:1034F0000F981099096808601098006840690F904B
:103500000F9820F007000F901098406A0F99084319
:103510000F901098406A04281CD1FFE71098806A29
:103520000F9908430F901098C06A002811D0FFE748
:103530001098FDF7E1FB00280AD0FFE71098402122
:1035400041651098012180F835108DF8471091E2FF
:10355000FFE7FFE70F981099096848611098FDF799
:103560007FF90D901098C06D00F01F003F2101FA07
:1035700000F00D9988602AE110980068012145F259
:103580000842C5F60202904205914ED0FFE710981E
:103590000068012145F21C42C5F6020290420591E5
:1035A00043D0FFE710980068012145F23042C5F68C
:1035B00002029042059138D0FFE71098006801217F
:1035C00045F24442C5F60202904205912DD0FFE734
:1035D00010980068012145F25842C5F60202904257
:1035E000059122D0FFE710980068012145F26C4256
:1035F000C5F602029042059117D0FFE710980068C7
:10360000012145F28042C5F60202904205910CD09C
:10361000FFE7109800684AF66C31CAF2FD71084461
:10362000B0FA80F040090590FFE70598C007002830
:1036300000F0C180FFE710980068012145F20842C0
:10364000C5F60202904204914ED0FFE71098006840
:10365000012145F21C42C5F602029042049143D07A
:10366000FFE710980068012145F23042C5F60202DA
:103670009042049138D0FFE710980068012145F28C
:103680004442C5F60202904204912DD0FFE7109803
:103690000068012145F25842C5F6020290420491A9
:1036A00022D0FFE710980068012145F26C42C5F670
:1036B00002029042049117D0FFE7109800680121A0
:1036C00045F28042C5F60202904204910CD0FFE719
:1036D000109800684AF66C31CAF2FD710844B0FADD
:1036E00080F040090490FFE70498C007002801D04B
:1036F000FFE7FFE71098022180F83510FFE71098E8
:10370000002180F83410FFE71098006800680F90DF
:103710000F986FF310100F9010988068402803D115
:10372000FFE71020039008E0109880688038B0FA16
:1037300080F0400980030390FFE703981099CA685E
:103740000B69D1F814C0D1F818E040EAD20040EA81
:10375000D30040EADC0040EADE00CA6940EAD20059
:10376000096A40EA11100F9908430F900F981099B9
:1037700009680860109801684AF6F832CAF2FD72CA
:1037800011444CF6CD42CCF6CC42A1FB02126FF0B4
:10379000030303EA9202C26510980291FDF760F8F4
:1037A0000C901098C06D00F01F00012101FA00F08C
:1037B0000C9948600AE01098402141651098032157
:1037C00080F8351001208DF8470053E1FFE710988D
:1037D000006801211022C4F202029042019100F01F
:1037E0000381FFE71098006801212822C4F2020239
:1037F0009042019100F0F880FFE7109800680121E5
:103800004022C4F202029042019100F0ED80FFE7F5
:103810001098006801215822C4F2020290420191DE
:1038200000F0E280FFE71098006801217022C4F2E6
:1038300002029042019100F0D780FFE710980068E3
:1038400001218822C4F202029042019100F0CC8052
:10385000FFE7109800680121A022C4F20202904202
:10386000019100F0C180FFE7109800680121B822A3
:10387000C4F202029042019100F0B680FFE7109876
:103880000068012140F21042C4F20202904201910C
:1038900000F0AA80FFE710980068012140F228425A
:1038A000C4F202029042019100F09E80FFE710985E
:1038B0000068012140F24042C4F2020290420191AC
:1038C00000F09280FFE710980068012140F2584212
:1038D000C4F202029042019100F08680FFE7109846
:1038E0000068012140F27042C4F20202904201914C
:1038F0007AD0FFE710980068012140F28842C4F2B4
:103900000202904201916FD0FFE7109800680121F8
:1039100040F2A042C4F202029042019164D0FFE75B
:1039200010980068012140F2B842C4F202029042AD
:10393000019159D0FFE710980068012145F2084233
:10394000C5F60202904201914ED0FFE71098006840
:10395000012145F21C42C5F602029042019143D07A
:10396000FFE710980068012145F23042C5F60202D7
:103970009042019138D0FFE710980068012145F28C
:103980004442C5F60202904201912DD0FFE7109803
:103990000068012145F25842C5F6020290420191A9
:1039A00022D0FFE710980068012145F26C42C5F66D
:1039B00002029042019117D0FFE7109800680121A0
:1039C00045F28042C5F60202904201910CD0FFE719
:1039D000109800684AF66C31CAF2FD710844B0FADA
:1039E00080F040090190FFE70198C007002837D018
:1039F000FFE71098FDF720F810988068802804D120
:103A0000FFE7109800214160FFE710980179006EF0
:103A100001601098416E806E4860109840680028E0
:103A200015D0FFE710984068082810D8FFE71098D5
:103A3000FDF7C6F81098C06E4FF0000EC0F800E019
:103A40001098D0F870E0406FCEF8040007E01098AE
:103A50000021C1661098016710984167FFE7FFE7F2
:103A60001098002141651098012280F835208DF8CA
:103A70004710FFE79DF8470012B080BD000000002E
:103A800080B584B001460390009100F07DFA029069
:103A90000398019001980130002809D0FFE740F217
:103AA0000C00C2F200400078019908440190FFE741
:103AB000FFE700F069FADDF808E0A0EB0E00DDF8A2
:103AC00004E0704501D2FFE7F3E704B080BD0000D9
:103AD00082B00146ADF80600009102B070470000C8
:103AE00080B582B00146ADF806008820C5F600001A
:103AF0000068BDF80620104200910BD0FFE7BDF82A
:103B000006008821C5F600010860BDF80600FFF731
:103B1000DFFFFFE702B080BD93B00A460346129074
:103B20001191002010908020C5F600000D900B929E
:103B30000A93FFE7119800681099C840002800F028
:103B4000D681FFE7119800681099012202FA01F16D
:103B500008400F900F98002800F0C581FFE71198EA
:103B6000406800F00300012807D0FFE71198406883
:103B700000F0030002282FD1FFE7129880680E9012
:103B800010984000032101FA00F00E9921EA00008C
:103B90000E901198C0681099490088400E9908430A
:103BA0000E900E9812998860129840680E901098A6
:103BB000012101FA00F00E9921EA00000E901198FF
:103BC0004068C0F30010109988400E9908430E9089
:103BD0000E9812994860FFE71198406800F00300C2
:103BE000032818D0FFE71298C0680E901098400084
:103BF000032101FA00F00E9921EA00000E901198BD
:103C000080681099490088400E9908430E900E98DC
:103C10001299C860FFE71198406800F0030002287D
:103C200026D1FFE7129810996FF0030202EA5101C2
:103C30000844006A0E90109800F0070080000F21E1
:103C400001FA00F00E9921EA00000E901198006927
:103C5000109901F00701890088400E9908430E90E1
:103C60000E981299109B02EA530211440862FFE772
:103C7000129800680E9010984000032101FA00F09D
:103C80000E9921EA00000E901198406800F00300A0
:103C90001099490088400E9908430E900E98129989
:103CA0000860119880798007002800F01B81FFE7E9
:103CB000FFE744F2F440C5F60200016841F002015A
:103CC0000160006800F002000C900C980990FFE77A
:103CD000109820F0030040F20841C5F6000140585A
:103CE0000E90109800F0030080000F2101FA00F000
:103CF0000E9921EA00000E9012980021C5F60201EB
:103D0000884203D1FFE7002008907AE0129840F241
:103D10000041C5F60201884203D1FFE70120079068
:103D20006CE0129840F60001C5F60201884203D10A
:103D3000FFE7022006905EE0129840F60041C5F6CB
:103D40000201884203D1FFE70320059050E012985A
:103D500041F20001C5F60201884203D1FFE70420C9
:103D6000049042E0129841F20041C5F602018842F7
:103D700003D1FFE70520039034E0129841F60001DB
:103D8000C5F60201884203D1FFE70620029026E033
:103D9000129841F60041C5F60201884203D1FFE7BF
:103DA0000720019018E0129842F20001C5F60201C6
:103DB000884203D1FFE7082000900AE0129842F2FF
:103DC0000041C5F602010A22884208BF092200927A
:103DD000FFE700980190FFE701980290FFE7029843
:103DE0000390FFE703980490FFE704980590FFE72E
:103DF00005980690FFE706980790FFE70798089058
:103E0000FFE70898109901F00301890088400E9996
:103E100008430E900E98109921F0030140F20842D9
:103E2000C5F6000288504FF0B04000680E900F9821
:103E30000E9921EA00000E9011988079C0060028A2
:103E400005D5FFE70F980E9908430E90FFE70E98EF
:103E50004FF0B04108600420C5F6000000680E90E5
:103E60000F980E9921EA00000E9011988079800633
:103E7000002805D5FFE70F980E9908430E90FFE73D
:103E80000E980421C5F6000108600D9840680E9058
:103E90000F980E9921EA00000E9011988079800702
:103EA000002805D5FFE70F980E9908430E90FFE70D
:103EB0000E980D9948600D9800680E900F980E9915
:103EC00021EA00000E9011988079C007002805D0E3
:103ED000FFE70F980E9908430E90FFE70E980D9993
:103EE0000860FFE7FFE710980130109022E613B05A
:103EF000704700000000000084B00A4603460390AB
:103F0000ADF80A1003980069BDF80A100842019242
:103F1000009304D0FFE701208DF8090003E00020A2
:103F20008DF80900FFE79DF8090004B07047000014
:103F300080B585B013468C4686460490ADF80E10C9
:103F40008DF80D209DF80D0000280293CDF804C0D7
:103F5000CDF800E005D0FFE7BDF80E0004998861B8
:103F600005E0BDF80E00000404998861FFE705B084
:103F700080BD00000000000041F20000C5F60040D6
:103F80000068000C7047000040F20420C2F20040BC
:103F9000006870470000000040F20C00C2F20040D0
:103FA000007840F20421C2F200410A68104408601F
:103FB000704700000000000080B582B0032000F0D0
:103FC00037F901F0A9FF44F2184EC5F6020EDEF8EB
:103FD0000010C1F303214AF6EE02C0F60002515C64
:103FE00001F01F01C84000900098DEF8001001F0B9
:103FF0000F01515C01F01F01C84040F20801C2F2FC
:1040000000410860009840F20401C2F200410860DB
:104010000F2000F015F8002804D0FFE701208DF8EC
:10402000070006E000F0C0F84FF0000E8DF807E042
:10403000FFE79DF8070002B080BD0000000000000F
:1040400080B584B00146029040F20C00C2F20040FC
:1040500000780028019104D1FFE701208DF80F00BE
:1040600031E040F20400C2F20040006840F20C016E
:10407000C2F2004109784FF47A72B2FBF1F1B0FB61
:10408000F1F002F0B1FE002804D0FFE701208DF826
:104090000F0018E002980F280DD8FFE702994FF0A3
:1040A000FF30002200F0A0F8029840F21001C2F2A6
:1040B0000041086003E001208DF80F0003E00020BC
:1040C0008DF80F00FFE79DF80F0004B080BD0000E1
:1040D000B0B582B001460190019840784EF69852F2
:1040E000CEF2000210604EF6A050CEF20000026840
:1040F00022F001020260019A52684EF69C53CEF201
:1041000000031A60019A137B1B0792F80BC043EA65
:104110000C6392F800C092F808E0547A957A43EA6A
:10412000C543557B43EA8543957B43EA4543D27BB0
:1041300043EA024242EA042242EA4E0242EA0C0206
:104140000260009102B0B0BDBFF35F8F4EF6245005
:10415000CEF20000016821F4803101604EF69450E7
:10416000CEF2000000210160704700000000000056
:1041700082B001460190019840F001004EF6945241
:10418000CEF2000210604EF62450CEF2000002681B
:1041900042F480320260BFF34F8FBFF36F8F009104
:1041A00002B070470000000082B0FFE744F2F44024
:1041B000C5F60200016841F002010160006800F0EC
:1041C0000200019001980090FFE702B070470000E4
:1041D00080B582B00146ADF80600BDF90600009139
:1041E00005F092FD02B080BD80B58AB013468C46C2
:1041F0008646ADF82600089107920593CDF810C0C9
:10420000CDF80CE005F09CFD0690BDF9260006995E
:10421000089A079B0290084611461A4603F064FF6D
:10422000029901900846019905F092FD0AB080BDFF
:1042300080B582B0014601900198009105F0B0FD73
:1042400002B080BD0000000080B584B0014602903D
:1042500044F60C00C5F60200006800F004000022DD
:10426000B2EB900F009113D1FFE744F60C00C5F6B6
:104270000200006800F007000299884204D0FFE7BE
:1042800001208DF80F0030E000208DF80F002CE0A9
:1042900044F60C00C5F60200016821F00701029AFD
:1042A00011430160FFF770FE0190FFE744F6040040
:1042B000C5F60200006800F400500021B1EB503F49
:1042C0000FD1FFE7FFF760FEDDF804E0A0EB0E0082
:1042D000B0F57A7F04D9FFE701208DF80F0004E0E4
:1042E000E4E700208DF80F00FFE79DF80F0004B011
:1042F00080BD00000000000080B501F0B1FD44F277
:10430000204EC5F6020EDEF800E0CEF3021E4AF69D
:10431000EE01C0F6000111F80E1001F01F01C840B7
:1043200080BD00000000000089B00146089044F202
:104330002840C5F60200026802F0030207920068F6
:10434000C0F30530069044F22C40C5F60200006828
:10435000C0F300100590059844F23C42C5F60202F5
:10436000126892B2D208504300EE100AB8EE400A2A
:104370008DED030A06980028019100F01D81FFE7EA
:1043800007980028009009D0FFE7009801286AD01C
:10439000FFE70098022800F08A80ACE044F2004079
:1043A000C5F60200006800F020000021B1EB501FAC
:1043B00034D0FFE744F20040C5F602000068C0F3C5
:1043C000C10049F20001C0F2D03121FA00F004909E
:1043D0009DED040AB8EE400A9DED061AB8EE411AAA
:1043E00080EE010A44F23840C5F6020000686FF31F
:1043F0005F2001EE100AB8EE411A9DED032A9FEDF1
:10440000743A82EE032A31EE021AB7EE002A31EE38
:10441000021A20EE010A8DED020A23E09DED060A44
:10442000B8EE400A9FED6C1A81EE000A44F2384063
:10443000C5F6020000686FF35F2001EE100AB8EEC7
:10444000411A9DED032A9FED623A82EE032A31EE76
:10445000021AB7EE002A31EE021A20EE010A8DEDA3
:10446000020AFFE76BE09DED060AB8EE400A9FEDF9
:10447000591A81EE000A44F23840C5F6020000687D
:104480006FF35F2001EE100AB8EE411A9DED032A8A
:104490009FED4F3A82EE032A31EE021AB7EE002A60
:1044A00031EE021A20EE010A8DED020A47E09DED81
:1044B000060AB8EE400A9FED451A81EE000A44F262
:1044C0003840C5F6020000686FF35F2001EE100A65
:1044D000B8EE411A9DED032A9FED3D3A82EE032A84
:1044E00031EE021AB7EE002A31EE021A20EE010A6E
:1044F0008DED020A23E09DED060AB8EE400A9FED1D
:10450000351A81EE000A44F23840C5F60200006810
:104510006FF35F2001EE100AB8EE411A9DED032AF9
:104520009FED2B3A82EE032A31EE021AB7EE002AF3
:1045300031EE021A20EE010A8DED020AFFE79DED31
:10454000020A44F23840C5F60200016889B2490AFD
:1045500001EE101AB8EE411AB7EE002A31EE021A37
:1045600080EE010A0899BCEEC00A81ED000A9DEDBB
:10457000020A0168C1F3064101EE101AB8EE411AB1
:1045800031EE021A80EE010A0899BCEEC00A81EDF4
:10459000010A9DED020A0068C0F3066001EE100AF0
:1045A000B8EE411A31EE021A80EE010A0898BCEE0C
:1045B000C00A80ED020A07E008980021016008980F
:1045C000416008988160FFE709B0704720BCBE4B8E
:1045D000000000460024744A0024744C00000000CF
:1045E00089B00146089044F22840C5F602000268EE
:1045F00002F0030207920068C0F30550069044F2EF
:104600002C40C5F602000068C0F300200590059814
:1046100044F24442C5F60202126892B2D2085043F4
:1046200000EE100AB8EE400A8DED030A0698002845
:10463000019100F01D81FFE707980028009009D044
:10464000FFE7009801286AD0FFE70098022800F0F1
:104650008A80ACE044F20040C5F60200006800F039
:1046600020000021B1EB501F34D0FFE744F200409E
:10467000C5F602000068C0F3C10049F20001C0F2B3
:10468000D03121FA00F004909DED040AB8EE400A02
:104690009DED061AB8EE411A80EE010A44F2404040
:1046A000C5F6020000686FF35F2001EE100AB8EE55
:1046B000411A9DED032A9FED743A82EE032A31EEF2
:1046C000021AB7EE002A31EE021A20EE010A8DED31
:1046D000020A23E09DED060AB8EE400A9FED6C1A2F
:1046E00081EE000A44F24040C5F6020000686FF314
:1046F0005F2001EE100AB8EE411A9DED032A9FEDEE
:10470000623A82EE032A31EE021AB7EE002A31EE47
:10471000021A20EE010A8DED020AFFE76BE09DED23
:10472000060AB8EE400A9FED591A81EE000A44F2DB
:104730004040C5F6020000686FF35F2001EE100AEA
:10474000B8EE411A9DED032A9FED4F3A82EE032AFF
:1047500031EE021AB7EE002A31EE021A20EE010AFB
:104760008DED020A47E09DED060AB8EE400A9FED86
:10477000451A81EE000A44F24040C5F60200006886
:104780006FF35F2001EE100AB8EE411A9DED032A87
:104790009FED3D3A82EE032A31EE021AB7EE002A6F
:1047A00031EE021A20EE010A8DED020A23E09DEDA2
:1047B000060AB8EE400A9FED351A81EE000A44F26F
:1047C0004040C5F6020000686FF35F2001EE100A5A
:1047D000B8EE411A9DED032A9FED2B3A82EE032A93
:1047E00031EE021AB7EE002A31EE021A20EE010A6B
:1047F0008DED020AFFE79DED020A44F24040C5F646
:104800000200016889B2490A01EE101AB8EE411A95
:10481000B7EE002A31EE021A80EE010A0899BCEECA
:10482000C00A81ED000A9DED020A0168C1F306414C
:1048300001EE101AB8EE411A31EE021A80EE010AAA
:104840000899BCEEC00A81ED010A9DED020A0068DC
:10485000C0F3066001EE100AB8EE411A31EE021AFA
:1048600080EE010A0898BCEEC00A80ED020A07E05B
:104870000898002101600898416008988160FFE76E
:1048800009B0704720BCBE4B000000460024744AAB
:104890000024744C0000000080B59EB001461C90BE
:1048A00000208DF867008DF866001C98C07800071E
:1048B000002818914AD5FFE71C98806E00281790B1
:1048C0000FD0FFE71798B0F5801F13D0FFE71798B8
:1048D000B0F5001F16D0FFE71798B0F5401F19D0AC
:1048E00019E044F22C40C5F60200016841F40031A1
:1048F000016014E01C980830022103F039FC8DF8A7
:1049000067000CE01C982830022103F01DFD8DF893
:10491000670004E003E001208DF86700FFE79DF8E1
:10492000670000280CD1FFE744F25040C5F60200B2
:10493000016821F440111C9A926E1143016004E059
:104940009DF867008DF86600FFE7FFE71C98407848
:10495000C007002841D0FFE71C98806D04281690FE
:1049600020D81699DFE801F0030C141C1D0044F256
:104970002C40C5F60200016841F40031016015E0E9
:104980001C980830002103F0F3FB8DF867000DE060
:104990001C982830002103F0D7FC8DF8670005E053
:1049A00004E003E001208DF86700FFE79DF8670051
:1049B00000280CD1FFE744F25040C5F60200016820
:1049C00021F007011C9A926D1143016004E09DF8EB
:1049D00067008DF86600FFE7FFE71C9840788007C6
:1049E00000284DD5FFE71C98C06D0028159011D008
:1049F000FFE71598402816D0FFE7159880281AD0B1
:104A0000FFE71598C0281ED0FFE71598B0F5807F06
:104A10001AD01AE044F22C40C5F60200016841F4B5
:104A20000031016015E01C980830002103F0A0FB64
:104A30008DF867000DE01C982830002103F084FCFD
:104A40008DF8670005E004E003E001208DF86700C1
:104A5000FFE79DF8670000280CD1FFE744F25040C3
:104A6000C5F60200016821F4E0711C9AD26D114371
:104A7000016004E09DF867008DF86600FFE7FFE73E
:104A80001C9840784007002852D5FFE71C98D0F8C2
:104A9000A8000028149014D0FFE71498B0F5001F68
:104AA00018D0FFE71498B0F5800F1BD0FFE71498DB
:104AB000B0F5C00F1ED0FFE71498B0F5000F1AD064
:104AC0001AE044F22C40C5F60200016841F40031BE
:104AD000016015E01C980830002103F049FB8DF8B7
:104AE00067000DE01C982830002103F02DFC8DF8A4
:104AF000670005E004E003E001208DF86700FFE7B0
:104B00009DF8670000280DD1FFE744F25840C5F634
:104B10000200016821F460011C9AD2F8A820114318
:104B2000016004E09DF867008DF86600FFE7FFE78D
:104B30001C9840780007002852D5FFE71C98D0F851
:104B4000AC000028139014D0FFE71398B0F1807FD9
:104B500018D0FFE71398B0F1007F1BD0FFE7139840
:104B6000B0F1407F1ED0FFE71398B0F1806F1AD0EC
:104B70001AE044F22C40C5F60200016841F400310D
:104B8000016015E01C980830002103F0F1FA8DF85F
:104B900067000DE01C982830002103F0D5FB8DF84C
:104BA000670005E004E003E001208DF86700FFE7FF
:104BB0009DF8670000280DD1FFE744F25840C5F684
:104BC0000200016821F0E0611C9AD2F8AC20114388
:104BD000016004E09DF867008DF86600FFE7FFE7DD
:104BE0001C98C0788007002840D5FFE71C98C06C4F
:104BF000002812901ED0FFE71298102808D0FFE777
:104C0000129820280DD0FFE71298302811D012E01A
:104C100044F22C40C5F60200016841F40031016005
:104C20000DE01C980830022103F0A2FA8DF867000D
:104C300005E004E003E001208DF86700FFE79DF840
:104C4000670000280CD1FFE744F24C40C5F6020093
:104C5000016821F030011C9AD26C1143016004E01C
:104C60009DF867008DF86600FFE7FFE71C98407825
:104C7000C006002850D5FFE71C98006E0028119050
:104C800014D0FFE71198B0F5805F18D0FFE71198B6
:104C9000B0F5005F1BD0FFE71198B0F5405F1ED064
:104CA000FFE71198B0F5804F1AD01AE044F22C407B
:104CB000C5F60200016841F40031016015E01C985E
:104CC0000830002103F054FA8DF867000DE01C98BD
:104CD0002830002103F038FB8DF8670005E004E080
:104CE00003E001208DF86700FFE79DF867000028CA
:104CF0000CD1FFE744F25040C5F60200016821F4F0
:104D0000E0411C9A126E1143016004E09DF86700B7
:104D10008DF86600FFE7FFE71C98407880060028C2
:104D20004ED5FFE71C98406E0028109019D0FFE781
:104D30001098B0F5803F15D0FFE71098B0F5003F10
:104D400018D0FFE71098B0F5403F1BD0FFE7109850
:104D5000B0F5802F17D0FFE71098B0F5A02F13D033
:104D600013E016E01C980830012103F001FA8DF8D9
:104D700067000EE01C982830012103F0E5FA8DF859
:104D8000670006E005E004E003E001208DF867001D
:104D9000FFE79DF8670000280CD1FFE744F2504080
:104DA000C5F60200016821F4E0211C9A526E1143FD
:104DB000016004E09DF867008DF86600FFE7FFE7FB
:104DC0001C9840784006002850D5FFE71C98D0F882
:104DD000B00000280F9019D0FFE70F98B0F1805F66
:104DE00015D0FFE70F98B0F1005F18D0FFE70F98DC
:104DF000B0F1405F1BD0FFE70F98B0F1804F17D0A4
:104E0000FFE70F98B0F1A04F13D013E016E01C9805
:104E10000830012103F0ACF98DF867000EE01C9812
:104E20002830012103F090FA8DF8670006E005E0D4
:104E300004E003E001208DF86700FFE79DF86700BC
:104E400000280DD1FFE744F25840C5F60200016882
:104E500021F0E0411C9AD2F8B0201143016004E037
:104E60009DF867008DF86600FFE7FFE71C98407823
:104E7000000600283DD5FFE71C98006F00280E9023
:104E80001BD0FFE70E98B0F1805F05D0FFE70E98CA
:104E9000B0F1005F09D011E044F22C40C5F60200E9
:104EA000016841F4003101600CE01C9808300121D8
:104EB00003F05EF98DF8670004E003E001208DF84F
:104EC0006700FFE79DF8670000280CD1FFE744F278
:104ED0005040C5F60200016821F040511C9A126F43
:104EE0001143016004E09DF867008DF86600FFE75C
:104EF000FFE71C98C078C007002838D0FFE71C984F
:104F0000806C03280D9017D80D99DFE801F014028A
:104F10000B1344F22C40C5F60200016841F4003145
:104F200001600DE01C980830022103F021F98DF892
:104F3000670005E004E003E001208DF86700FFE76B
:104F40009DF8670000280CD1FFE744F24C40C5F6FD
:104F50000200016821F003011C9A926C1143016068
:104F600004E09DF867008DF86600FFE7FFE71C98F6
:104F700080784006002840F1BD80FFE744F600003D
:104F8000C5F60200016841F480710160FEF7FCFF84
:104F90001A90FFE744F60000C5F602000068C0055D
:104FA00000280ED4FFE7FEF7EFFFDDF868E0A0EB86
:104FB0000E00652804D3FFE703208DF8670000E0AA
:104FC000E8E79DF86700002840F08E80FFE744F294
:104FD0007040C5F60200006800F440701C99D1F8DA
:104FE000B41001F44071884213D0FFE744F27040DE
:104FF000C5F60200016821F440711B91016841F47B
:1050000080310160016821F4803101601B990160E9
:10501000FFE71C98D0F8B400B0F5807F21D1FFE7FE
:10502000FEF7B2FF1A90FFE744F27040C5F60200A7
:10503000006800F002000021B1EB500F10D1FFE733
:10504000FEF7A2FFDDF868E0A0EB0E0041F2893E1A
:10505000704504D3FFE703208DF8670000E0E3E725
:10506000FFE79DF86700002838D1FFE7FFE71C98AD
:10507000D0F8B40000F44070B0F5407F15D1FFE7E0
:1050800044F21040C5F60200016821F47C511C9ADC
:10509000D2F8B4204FF6F043C0F6FF731A4041EA4D
:1050A00012110A4601600C920AE044F21040C5F663
:1050B0000200016821F47C510A4601600B92FFE76F
:1050C0001C98D0F8B4006FF31F3044F27041C5F65D
:1050D00002010A6810430860FFE704E09DF86700DA
:1050E0008DF86600FFE704E09DF867008DF8660024
:1050F000FFE7FFE71C980068C007002800F04D801C
:10510000FFE71C98C06F28280A902BD80A99DFE87F
:1051100001F0152929292929292916292929292987
:1051200029291E29292929292929262929292929FD
:1051300029292729292929292929280016E01C9805
:105140000830012103F014F88DF867000EE01C9878
:105150002830012103F0F8F88DF8670006E005E03B
:1051600004E003E001208DF86700FFE79DF8670089
:1051700000280CD1FFE744F25440C5F60200016854
:1051800021F038011C9AD26F1143016004E09DF8B0
:1051900067008DF86600FFE7FFE71C98007880073E
:1051A00000283AD5FFE71C98806F0528099019D888
:1051B0000999DFE801F003040C14151616E01C9899
:1051C0000830012102F0D4FF8DF867000EE01C9832
:1051D0002830012103F0B8F88DF8670006E005E0FB
:1051E00004E003E001208DF86700FFE79DF8670009
:1051F00000280CD1FFE744F25440C5F602000168D4
:1052000021F007011C9A926F1143016004E09DF8A0
:1052100067008DF86600FFE7FFE71C9800784007FD
:1052200000283CD5FFE71C98D0F89400052808908A
:1052300019D80899DFE801F003040C14151616E0DC
:105240001C980830012102F093FF8DF867000EE0F2
:105250001C982830012103F077F88DF8670006E0EC
:1052600005E004E003E001208DF86700FFE79DF80A
:10527000670000280DD1FFE744F25840C5F6020050
:10528000016821F007011C9AD2F8942011430160B3
:1052900004E09DF867008DF86600FFE7FFE71C98C3
:1052A00000788006002850D5FFE71C98D0F89000C1
:1052B0000028079019D0FFE70798B0F1805F15D05C
:1052C000FFE70798B0F1005F18D0FFE70798B0F14B
:1052D000405F1BD0FFE70798B0F1804F17D0FFE782
:1052E0000798B0F1A04F13D013E016E01C980830D7
:1052F000002102F03DFF8DF867000EE01C98283079
:10530000022103F021F88DF8670006E005E004E0D3
:1053100003E001208DF86700FFE79DF86700002893
:105320000DD1FFE744F25440C5F60200016821F0B8
:10533000E0411C9AD2F890201143016004E09DF8EE
:1053400067008DF86600FFE7FFE71C9800784006CD
:10535000002850D5FFE71C98D0F89C000028069044
:1053600019D0FFE70698B0F5806F15D0FFE70698D3
:10537000B0F5006F18D0FFE70698B0F5406F1BD06E
:10538000FFE70698B0F5805F17D0FFE70698B0F505
:10539000A05F13D013E016E01C980830002102F043
:1053A000E7FE8DF867000EE01C982830022102F01D
:1053B000CBFF8DF8670006E005E004E003E0012084
:1053C0008DF86700FFE79DF8670000280DD1FFE723
:1053D00044F25840C5F60200016821F4E0511C9ADD
:1053E000D2F89C201143016004E09DF867008DF81D
:1053F0006600FFE7FFE71C9800780006002850D5FC
:10540000FFE71C98D0F8A0000028059019D0FFE70E
:105410000598B0F5005F15D0FFE70598B0F5804F0F
:1054200018D0FFE70598B0F5C04F1BD0FFE70598EF
:10543000B0F5004F17D0FFE70598B0F5204F13D017
:1054400013E016E01C980830002102F091FE8DF860
:1054500067000EE01C982830022102F075FF8DF8DD
:10546000670006E005E004E003E001208DF8670036
:10547000FFE79DF8670000280DD1FFE744F2584090
:10548000C5F60200016821F460411C9AD2F8A02000
:105490001143016004E09DF867008DF86600FFE7A6
:1054A000FFE71C9800780007002821D5FFE71C982B
:1054B000D0F88400B0F5805F0DD1FFE71C9828304C
:1054C000022102F041FF002804D0FFE701208DF8FF
:1054D0006600FFE7FFE744F25440C5F602000168AA
:1054E00021F440511C9AD2F8842011430160FFE757
:1054F0001C980078C006002821D5FFE71C98D0F83A
:105500009800B0F5807F0DD1FFE71C98283002216C
:1055100002F01AFF002804D0FFE701208DF8660092
:10552000FFE7FFE744F25840C5F60200016821F4A6
:1055300040711C9AD2F8982011430160FFE71C9833
:105540008078000700283ED5FFE71C98D0F8A4001B
:10555000002804900AD0FFE70498B0F5803F0DD0F2
:10556000FFE70498B0F5003F10D010E01C98083019
:10557000002102F0FDFD8DF867000CE01C9828303A
:10558000022102F0E1FE8DF8670004E003E0012053
:105590008DF86700FFE79DF8670000280DD1FFE751
:1055A00044F25840C5F60200016821F440311C9ACB
:1055B000D2F8A4201143016004E09DF867008DF843
:1055C0006600FFE7FFE71C9880784007002840D579
:1055D000FFE71C98D0F88800B0F5801F03900AD030
:1055E000FFE70398B0F5001F0ED0FFE70398B0F572
:1055F000401F11D011E044F22C40C5F602000168B2
:1056000041F4003101600CE01C982830012102F0C7
:105610009BFE8DF8670004E003E001208DF8670031
:10562000FFE79DF8670000280DD1FFE744F25440E2
:10563000C5F60200016821F440111C9AD2F88820B6
:105640001143016004E09DF867008DF86600FFE7F4
:10565000FFE71C988078C007002837D0FFE71C9828
:10566000006D0028029005D0FFE70298B0F5803F5A
:1056700009D010E044F22C40C5F60200016841F464
:10568000003101600BE01C980830022102F070FD2F
:105690008DF8670003E001208DF86700FFE79DF8B3
:1056A000670000280CD1FFE744F24C40C5F6020029
:1056B000016821F480311C9A126D1143016004E0ED
:1056C0009DF867008DF86600FFE7FFE71C98C0783B
:1056D000800600280DD5FFE71C982830022102F033
:1056E00033FE002804D0FFE701208DF86600FFE7B5
:1056F000FFE71C988078800700283ED5FFE71C98BC
:10570000D0F88000002801901AD0FFE70198B0F58A
:10571000807F0AD0FFE70198B0F5007F0ED0FFE749
:105720000198B0F5407F0AD00BE044F22C40C5F65A
:105730000200016841F40031016006E005E004E088
:1057400003E001208DF86700FFE79DF8670000285F
:105750000DD1FFE744F25440C5F60200016821F480
:1057600040711C9AD2F880201143016004E09DF83A
:1057700067008DF86600FFE7FFE71C988078C00699
:1057800000280CD5FFE744F25040C5F6020001683E
:1057900021F000411C9A526F11430160FFE71C98F1
:1057A000C078C00600280DD5FFE744F21040C5F6CA
:1057B0000200016821F480411C9AD2F8B8201143FC
:1057C0000160FFE71C988078800600280CD5FFE771
:1057D00044F25040C5F60200016821F080711C9A25
:1057E000D26E11430160FFE71C98C0784006002884
:1057F00011D5FFE7FFE744F21040C5F6020001684B
:1058000021F4004101601C99D1F8BC1002681143D9
:105810000160FFE7FFE71C98C078000600280CD560
:10582000FFE744F24C40C5F60200016821F0405108
:105830001C9A526D11430160FFE71C9880780006A6
:1058400000280DD5FFE744F25440C5F60200016878
:1058500021F440011C9AD2F88C2011430160FFE72B
:105860001C980079C007002813D0FFE71C98083067
:10587000002102F07DFC8DF867009DF8670000288C
:1058800001D1FFE704E09DF867008DF86600FFE7AF
:10589000FFE71C9800798007002813D5FFE71C98C4
:1058A0000830012102F064FC8DF867009DF8670064
:1058B000002801D1FFE704E09DF867008DF866003D
:1058C000FFE7FFE71C9800794007002813D5FFE7A2
:1058D0001C980830022102F04BFC8DF867009DF8FF
:1058E0006700002801D1FFE704E09DF867008DF80C
:1058F0006600FFE7FFE71C9800790007002813D532
:10590000FFE71C982830002102F01EFD8DF867008B
:105910009DF86700002801D1FFE704E09DF86700CB
:105920008DF86600FFE7FFE71C980079C0060028A5
:1059300013D5FFE71C982830012102F005FD8DF8F2
:1059400067009DF86700002801D1FFE704E09DF89B
:1059500067008DF86600FFE7FFE71C980079800676
:10596000002813D5FFE71C982830022102F0ECFC38
:105970008DF867009DF86700002801D1FFE704E07B
:105980009DF867008DF86600FFE7FFE79DF8660069
:10599000002804D1FFE700208DF8770003E0012004
:1059A0008DF87700FFE79DF877001EB080BD0000FE
:1059B00080B588B00A4603460690059106980028EF
:1059C0000192009304D1FFE701208DF81F0040E20F
:1059D000059842F20001C5F20021096801F00F01AB
:1059E000884216D9FFE742F20000C5F200200168A4
:1059F00021F00F01059A11430160006800F00F00CB
:105A00000599884204D0FFE701208DF81F0020E2AD
:105A1000FFE7069800684007002819D5FFE70698B9
:105A2000006944F21841C5F60201096801F07001ED
:105A300088420CD9FFE744F21840C5F6020001681D
:105A400021F07001069A126911430160FFE7FFE738
:105A5000069800680007002819D5FFE706984069F6
:105A600044F21C41C5F60201096801F07001884248
:105A70000CD9FFE744F21C40C5F60200016821F092
:105A80007001069A526911430160FFE7FFE706982B
:105A90000068C006002819D5FFE70698806944F21F
:105AA0001C41C5F60201096801F4E06188420CD985
:105AB000FFE744F21C40C5F60200016821F4E061F2
:105AC000069A926911430160FFE7FFE706980068B4
:105AD0008006002819D5FFE70698C06944F22041E6
